:020000040800F2
:100000000024002031270008392700083B2700087A
:100010003D2700083F270008412700080000000096
:10002000000000000000000000000000432700085E
:10003000452700080000000047270008492700085E
:100040004B2700084B2700084B2700084B270008C8
:100050004B2700084B2700084B2700084B270008B8
:100060004B2700084B2700084B2700084B270008A8
:100070004B2700084B2700084B2700084B27000898
:100080004B2700084B2700084B2700084B27000888
:100090004B2700084B2700084B2700084B27000878
:1000A0004B2700084B2700084B2700084B27000868
:1000B0004B270008812400084B2700084B27000825
:1000C0004B2700084B2700084B2700084B27000848
:1000D0004B2700084B2700084B2700084B27000838
:1000E0004B2700084B2700084B27000800F002F8B8
:1000F00000F05EF80AA090E8000C82448344AAF164
:100100000107DA4501D100F053F8AFF2090EBAE861
:100110000F0013F0010F18BFFB1A43F0010318473B
:100120009C9D0000BC9D000010F8013B0A4413F0A8
:10013000030408BF10F8014B1D1108BF10F8015B44
:10014000641E05D010F8016B641E01F8016BF9D133
:10015000002D15D010F8014B03F00C030C2BA1EB74
:1001600004040ABF10F8013BA4EB8314A4EB03249E
:1001700005F1010314F8016B5B1E01F8016BF9D561
:10018000914238BF10F8013BD1D3704700230024BF
:1001900000250026103A28BF78C1FBD8520728BF97
:1001A00030C148BF0B6070471FB51FBD10B510BDF3
:1001B00008F045FF1146FFF7F7FF02F05EFA08F07E
:1001C00063FF03B4FFF7F2FF03BC08F067FF000012
:1001D00008B50020FE490861C8601420486100206D
:1001E0008861C8610846006840F001000860084660
:1001F0004068F8490840F649486008460068F649F2
:100200000840F34908600846006820F48020086030
:100210000846406820F4FE004860002088601D20E9
:100220008DF8000000208DF8010003208DF80200F9
:1002300001208DF80300684605F091F908BD70B5FE
:1002400004460025FFF7C4FFE148006840F4803011
:10025000DF49086000BFDE480068400C0028FAD083
:100260004FF48060DA494860A01EC4B20846406876
:1002700040EA844048600846406840F48030486066
:10028000D648006840F03200D4490860D048006881
:1002900040F08070CE49086000BFCD480068400E35
:1002A0000028FAD0CA48406840F00200C8494860B7
:1002B00005E0C7484068C0F3870505F00305022D37
:1002C000F7D170BD10B5C6480078C2114FF4005187
:1002D000C44803F0AEFBC2480078C043C049087070
:1002E00010BD10B5F0234FF4A0720021084602F0B3
:1002F000F0FB01221103BB4803F09BFB00BF01216F
:10030000B84803F036FA0128F9D000222021B54878
:1003100003F08FFB01222021B24803F08AFB012267
:100320000221B04803F085FB00BF0121AD4803F076
:1003300020FA0028F9D000BF0121AA4803F019FAD9
:100340000128F9D000220221A64803F072FB02F036
:100350004DFF0020A449086035E00020A349086053
:1003600027E010209F494861A1480068A149088002
:1003700010209C49086148619D480068C0B29E49B0
:1003800008801020974908619B480088994909789E
:1003900040EA012099490880084600889849086089
:1003A000C81490494861086190480068401C8F4912
:1003B00008608E480068B0F5A07FD2D38A480068F4
:1003C000401C8949086088480068F028C5D310BDE2
:1003D0002DE9FC5F0446E012C0EB00201F2190FBDA
:1003E000F1F0C5B2C4F34510C0EB00203F2190FBF3
:1003F000F1F0C6B204F01F00C0EB00201F2190FBFB
:10040000F1F0C7B2284608F0EDFF8246284608F012
:10041000E9FF0190304608F0E5FF8046019909F0B8
:10042000F5F803D8304608F0DDFF8246384608F07C
:10043000D9FF8046514609F0E9F803D8384608F05C
:10044000D1FF8246304608F0CDFF8046514608F085
:10045000DDFF03D8304608F0C5FF0190384608F0AC
:10046000C1FF8046019908F0D1FF03D8384608F053
:10047000B9FF01905146634808F0FCFF804662498D
:1004800008F082FE614908605046019909F0F0F8D1
:1004900081465C4908F0EEFF8046514608F074FE44
:1004A0005B490860284608F09DFF8046514608F0E9
:1004B0002DFF11D15046019909F0DAF88146F01B61
:1004C00008F078FF8346494608F05EFE80465149B1
:1004D00008F0D0FF50490860304608F083FF80469E
:1004E000514608F013FF15D15046019909F0C0F8A4
:1004F0008346781B08F05EFF5946009008F044FEE2
:100500008146444908F0B6FF8046444908F0CEFDD4
:1005100041490860384608F065FF8046514608F0BA
:10052000F5FE15D15046019909F0A2F88346A81BA3
:1005300008F040FF5946009008F026FE81463549F4
:1005400008F098FF8046364908F0B0FD324908604F
:1005500000213148006808F059FF06D231492E4881
:10056000006809F085F82C490860BDE8FC9F10B5CB
:10057000F0234FF4A0720021084602F0AAFA0122EB
:100580001103184803F055FA00BF0121154803F084
:10059000F0F80128F9D000222021124803F049FA8E
:1005A000012220210F4803F044FA012202210D48C4
:1005B00003F03FFA00BF01210A4803F0DAF80028EF
:1005C000F9D000BF0121074803F0D3F801282BE040
:1005D000001002400000FFF8FFFFF6FE002002407E
:1005E000010000200010014004000020080000204D
:1005F000080801400C0000200E0000201000002020
:100600000C0C01400000C84200007F43280000207D
:100610002C00002000007042300000200000F0425A
:10062000000070430000B443CCD000220221F64801
:1006300003F0FFF902F0DAFD0020F449086081E0E0
:100640000020F349086074E01020EF494861F14848
:100650000068F14908801020EB4908614861ED48C5
:100660000068C0B2ED4908801020E7490861EB48F6
:100670000088E949097840EA0120E9490880E3480F
:100680000068642818D1E2480068FA2814D10846A6
:100690000088C012E3490870E1480088C0F34510A3
:1006A000E1490870DE48007800F01F00DF4908705B
:1006B000DB480088DE490880D4480068642807D1F8
:1006C000D3480068F92803D14FF47840D449088012
:1006D000CE480068642807D1CD480068FB2803D1C4
:1006E0004FF47840CE490880C8480068632807D195
:1006F000C7480068FA2803D14FF47840C8490880F9
:10070000C2480068652807D1C1480068FA2803D1AB
:100710004FF47840C2490880C1480088C549086044
:10072000C814B94948610861B9480068401CB84913
:100730000860B7480068F02886D3B4480068401CB9
:10074000B2490860B1480068B0F5A07FFFF478AF07
:10075000B7480088FFF73CFE00234822C8211E202E
:1007600002F019FAB448006808F004FE04460323B6
:100770002246DC211E2002F0D5FA00235322C82194
:100780003C2002F008FAAD48006808F0F3FD04468A
:1007900003232246DC213C2002F0C4FA0023562227
:1007A000C8215A2002F0F7F9A548006808F0E2FDD8
:1007B000044603232246DC215A2002F0B3FA002328
:1007C0005222C821A02002F0E6F9022395480278BF
:1007D000DC21A02002F0A6FA00234722C821BE2077
:1007E00002F0D9F9022390480278DC21BE2002F001
:1007F00099FA00234222C821DC2002F0CCF902231E
:100800008A480278DC21084602F08CFA00207F49F1
:10081000086027E000207E4908601AE0814B1B78C1
:10082000DB02814C247843EA4413804C2478234330
:100830009AB2774B1B88C83399B2744B1B8803F567
:10084000967398B202F094F971480068401C7049A0
:1008500008606F4800681E28E0D36C480068401CA0
:100860006A490860694800681E28D3D310BD2DE985
:10087000F041002504E0002072494855681C85B20B
:10088000962DF8DB002531E000242BE005F1BF01B7
:1008900004F5947002F06BFA86B24FF6FF70864250
:1008A0001ED12046E21704EB527205EB450303EB21
:1008B000E202644B9A5C2146E31704EB5373DB10AE
:1008C000A4EBC303C3F107070123BB401A43E3179B
:1008D00004EB537305EB450707EBE303594FFA5459
:1008E000601C84B2182CD1DB681C85B2322DCBDBA6
:1008F000BDE8F0812DE9F041002637E000252DE02C
:10090000002427E0E21704EB5272D210962303FB77
:10091000062205EB45031A444B4B9A5CE31704EBA4
:100920005373DB10A4EBC303C3F1070C012303FAD9
:100930000CF31A4012B14FF6FF7700E0002705F1E3
:10094000BF0291B204F5947290B23A4602F010F9E7
:10095000601C84B2182CD5DB681C85B2322DCFDB2D
:100960004FF4FA7002F088FA701C86B22A2EC5DBAA
:10097000BDE8F0812DE9F34F83B0039C3DE00025F5
:1009800000261FE02F4810F806B0962000FB0460F8
:100990002D49085C0190002710E00120B84000EAD2
:1009A0000B090120B840019900EA010AD14500D1A4
:1009B0006D1CD14500D06D1E781CC7B2082FECDB32
:1009C000701CC6B26E2EDDDBA84502DA1FFA85F870
:1009D000029402232246DC21322002F0A3F90423F0
:1009E0002A46DC21462002F09DF904234246DC2100
:1009F000782002F097F9601EC4B204988442BEDBEE
:100A0000029805B0BDE8F08F0010014004000020FE
:100A100008000020080801400C0000200E00002003
:100A200010000020140000201500002016000020F7
:100A3000120000200C0C0140300000202C0000208F
:100A400028000020DE1C0020DD0100202DE9F041FF
:100A5000002529E0002423E0E21704EB527205EBA5
:100A6000450303EBE202FE4B9A5CE31704EB53737E
:100A7000DB10A4EBC303C3F107070123BB401A40FB
:100A800012B14FF6FF7600E0002605F1BF0291B2E9
:100A900004F5947290B2324602F06AF8601C84B297
:100AA000182CD9DB681C85B2962DD3DBBDE8F0810C
:100AB0002DE9F04389B006460F469046012E09D134
:100AC000002405E0E748005D01A90855601C84B2D8
:100AD000202CF7DB022E09D1002405E0E248005D5E
:100AE00001A90855601C84B2202CF7DB032E09D124
:100AF000002405E0DD48005D01A90855601C84B2B2
:100B0000032CF7DB042E09D1002405E0D848005D52
:100B100001A90855601C84B2202CF7DB052E09D1F1
:100B2000002405E0D348005D01A90855601C84B28B
:100B3000202CF7DB062E09D1002405E0CE48005D0D
:100B400001A90855601C84B2202CF7DB002429E0A1
:100B5000002523E0EA1705EB5272D21002EB4402A3
:100B600001AB9A5CEB1705EB5373DB10A5EBC303EA
:100B7000C3F1070C012303FA0CF31A4012B14FF62C
:100B8000FF7901E04FF0000904EB080291B2EA1985
:100B900090B24A4601F0ECFF681C85B2102DD9DBFB
:100BA000601C84B2102CD3DB09B0BDE8F08370B5B3
:100BB0000025B248048824E0B148005DF8B9B14886
:100BC000067807E0701C81B21F22204601F0D0FF9A
:100BD000701C86B2AC4800788642F3DB681EC5B252
:100BE000601C84B206E0601E84B2A848008884427B
:100BF00000DC03E0A248005D0028F4D000BF601EC6
:100C000084B2A24800888442D6DC681EC5B20223A2
:100C10002A46DC211E2002F085F8284670BD2DE909
:100C2000FF5F07460E46B81B19287DDA9548007805
:100C3000401C00F0FF0994480078401E00F0FF0AB5
:100C400014E0A6F10A0084B20AE04946204602F008
:100C50008EF880B20390039800B103E0601C84B268
:100C6000BC42F2DB00BF039800B106E05FEA090076
:100C700009F1010101F0FF09E3D100BF13E0701C8D
:100C800084B20AE05146204602F071F880B2039027
:100C9000039800B103E0601C84B2BC42F2DB00BFE9
:100CA000039800B106E05FEA0A00AAF1010101F031
:100CB000FF0AE4D100BFA9F1010000F0FF090AF129
:100CC000020000F0FF0A4FF6FF724946304601F07D
:100CD0004FFF4FF6FF725146384601F049FF0020A2
:100CE000019009F1010826E00A25701C84B216E083
:100CF0004146204602F03BF880B20390019A02F18F
:100D0000BF01BA1B521E40F20F139A1A2A4490B226
:100D1000039A01F02DFF681CC5B2601C84B2BC426E
:100D2000E6DB0198401C00E060E1C0B2019008F1F0
:100D300001001FFA80F8D045D6DB00200190B81BD7
:100D4000401EC0F11801B81B401E91FBF0F0C0B26C
:100D50000290B81B401EC0F11801B81B401E91FB49
:100D6000F0F200FB121000F0FF0BBBF1000F04D0FB
:100D7000182090FBFBF0C0B2009009F1010861E07F
:100D80000A25B81B401EC0F11801B81B401E91FB7C
:100D9000F0F200FB121000F0FF0B701C84B247E071
:100DA0004146204601F0E3FF80B20390019A02F130
:100DB000BF0105F20F10039A01F0DAFE681CC5B2FC
:100DC000B81B401EC0F11801B81B401E91FBF0F08B
:100DD000C0B202900DE0019A02F1BF0105F20F10BE
:100DE000039A01F0C5FE0298401EC0B20290681C32
:100DF000C5B202980028EED1BBF1000F16D0681CD6
:100E0000009990FBF1F201FB120078B9012D0DD091
:100E1000019A02F1BF0105F20F10039A01F0A8FE3A
:100E2000ABF1010000F0FF0B681CC5B2601C84B27E
:100E3000BC42B5DB0198401EC0B2019008F1010030
:100E40001FFA80F8D0459BDB4FF4FC62BF2140F2D3
:100E50000F1001F08DFE4FF4FC62F02118E000004D
:100E6000870000201D0100203D0100205D010020C1
:100E70007D0100209D010020BD01002036000020E2
:100E80009E1B0020180000201700002034000020C6
:100E900040F20F1001F06CFE4FF4FC62BF2140F2F3
:100EA000271001F065FE4FF4FC62F02140F227109C
:100EB00001F05EFEAAEB090032287DDAAAEB0900F8
:100EC000401CC0F13201AAEB0900401C91FBF0F07C
:100ED000C0B20290AAEB0900401CC0F13201AAEB9B
:100EE0000900401C91FBF0F200FB121000F0FF0B18
:100EF000322090FBFBF0C0B200900025A8466AE0CB
:100F000040F20F1410E008F1BF01204601F02FFF5E
:100F100080B2039005F1BF0104F1190290B2039A67
:100F200001F026FE601C84B2B4F5947FEBDB681CF4
:100F3000C5B21EE040F20F1412E008F1BF012046D6
:100F400001F015FF80B2039005F1BF02424491B257
:100F500004F1190290B2039A01F00AFE601C84B2F7
:100F6000B4F5947FE9DB0298401EC0B20290681C81
:100F7000C5B202980028DDD1BBF1000F27D0681C54
:100F8000009990FBF1F201FB120000BB012D1ED075
:100F900040F20F1412E008F1BF01204601F0E7FE15
:100FA00080B2039005F1BF0104F1190290B2039AD7
:100FB00001F0DEFD601C00E011E084B2B4F5947F26
:100FC000E9DBABF1010000F0FF0B681CC5B208F1D2
:100FD00001001FFA80F8AAEB0900404590DC4FF4AD
:100FE0007842BF214FF4A07001F0C2FDBDE8FF9F21
:100FF00070B5FC480088401E84B23DE101E0601EEF
:1010000084B2F948005D0028F9D0601CF7490880D7
:1010100001E0601E84B2F448005D0028F9DCF44869
:101020000480F2480088F2490988401A042812DA3C
:1010300001E0601E84B2EC48005D0028F9D0601C1D
:10104000EA49088001E0601E84B2E748005D00289C
:10105000F9DCE748048001E0601E84B2E248005DEC
:101060000028F9D0601CE349088001E0601E84B2CA
:10107000DD48005D0028F9DCDF480480DD48008899
:10108000DD490988401A042812DA01E0601E84B2A2
:10109000D548005D0028F9D0601CD649088001E0E1
:1010A000601E84B2D048005D0028F9DCD24804807C
:1010B00001E0601E84B2CC48005D0028F9D0601CBD
:1010C000CE49088001E0601E84B2C748005D002858
:1010D000F9DCCB480480C9480088C9490988401A0E
:1010E000042812DA01E0601E84B2BF48005D0028C7
:1010F000F9D0601CC149088001E0601E84B2BA4882
:10110000005D0028F9DCBE48048001E0601E84B266
:10111000B548005D0028F9D0601CBA49088001E09C
:10112000601E84B2B048005D0028F9DCB648048037
:10113000B4480088B4490988401A042812DA01E04A
:10114000601E84B2A848005D0028F9D0601CAD493B
:10115000088001E0601E84B2A348005D0028F9DC2D
:10116000A948048001E0601E84B29F48005D002809
:10117000F9D0601CA549088001E0601E84B29A483D
:10118000005D0028F9DCA2480480A0480088A0493E
:101190000988401A042812DA01E0601E84B29248DD
:1011A000005D0028F9D0601C9849088001E0601EAD
:1011B00084B28D48005D0028F9DC9548048001E088
:1011C000601E84B28848005D0028F9D0601C9149F7
:1011D000088001E0601E84B28348005D0028F9DCCD
:1011E0008D48048001E0601E84B27F48005D0028C5
:1011F000F9D0601C8949088001E0601E84B27A48F9
:10120000005D0028F9DC8648048084480088844911
:101210000988401A042812DA01E0601E84B272487C
:10122000005D0028F9D0601C7C49088001E0601E48
:1012300084B26D48005D0028F9DC7948048001E043
:10124000601E84B26848005D0028F9D0601C7549B2
:10125000088006E074480088844200DC05E0601ED7
:1012600084B26148005D0028F4DC00BF6F48048050
:101270006D480488601E84B26B48008884423FF742
:10128000BDAE6B48067871E0701C81B21F225748D2
:10129000008801F06DFC701C81B21F225448008848
:1012A00001F066FC701C81B21F225248008801F0D8
:1012B0005FFC701C81B21F224F48008801F058FC6F
:1012C000701C81B21F224D48008801F051FC701C37
:1012D00081B21F224A48008801F04AFC701C81B28A
:1012E0001F224848008801F043FC701C81B21F2275
:1012F0004548008801F03CFC701C81B21F22434825
:10130000008801F035FC701C81B21F224048008823
:1013100001F02EFC701C81B21F223E48008801F0B3
:1013200027FC701C81B21F223B48008801F020FC82
:10133000701C81B21F223948008801F019FC701C12
:1013400081B21F223648008801F012FC701C81B265
:101350001F223448008801F00BFC701C81B21F2250
:101360003248008801F004FC701C86B231480078D5
:10137000864289DB1E4801881C480088FFF74FFC25
:10138000FFF775FA24210020FFF7F4FA05460A2D2D
:1013900007DA2948425D0123DC21F02001F0C2FC7C
:1013A00006E02548425D0023DC21F02001F0F3FB3C
:1013B00022488571104801880E480088FFF72FFCED
:1013C000FFF755FA24210020FFF7D4FA05460A2D2D
:1013D00036DA1948425D0123DC21E62001F0A2FC47
:1013E00035E00000360000209E1B00203800002061
:1013F0003A0000203C0000203E0000204000002079
:101400004200002044000020460000204800002048
:101410004A0000204C0000204E0000205000002018
:10142000520000205400002034000020560000200C
:1014300018000020170000205B0000208000002022
:10144000FE48425D0023DC21E62001F0A4FBFC48BD
:101450004571FC480188FC480088FFF7E0FBFFF776
:1014600006FA24210020FFF785FA05460A2D07DA3F
:10147000F248425D0123DC21084601F053FC06E0FE
:10148000EE48425D0023DC21084601F084FBEC4875
:101490000571EE480188EE480088FFF7C0FBFFF7B2
:1014A000E6F924210020FFF765FA05460A2D07DA40
:1014B000E248425D0123DC21D22001F033FC06E04A
:1014C000DE48425D0023DC21D22001F064FBDC48D1
:1014D000C570E0480188E0480088FFF7A0FBFFF7EF
:1014E000C6F924210020FFF745FA05460A2D07DA40
:1014F000D248425D0123DC21C82001F013FC06E044
:10150000CE48425D0023DC21C82001F044FBCC48DA
:10151000857000232E22DC21BE2001F03CFBCF4849
:101520000188CF480088FFF77AFBFFF7A0F9242154
:101530000A20FFF71FFA05460A2D07DABF48425D69
:101540000123DC21B42001F0EDFB06E0BB48425D45
:101550000023DC21B42001F01EFBB9484570C148CE
:101560000188C1480088FFF75AFBFFF780F92A215C
:101570002420FFF7FFF90546A5F12301C8B2DC22BC
:10158000A021FFF795FAA5F12300AD49087070BDC1
:1015900070B5B648047816E0B54805880DE02146D8
:1015A000284601F0E4FB86B204F1320081B23246F3
:1015B000284601F0DDFA681C85B2AE4800888542F5
:1015C000EDDB601C84B2AC4800788442E4DD70BD81
:1015D00010B50020A94908601CE0A848008881B225
:1015E0004FF446620A2001F0C3FAA448008881B291
:1015F0004FF44662142001F0BBFAA048008881B283
:101600004FF446621E2001F0B3FA9C480068401C6B
:101610009A49086099480068F028DED3002097496D
:1016200008602CE0954A128891B2954A934B1B684A
:10163000D05C4FF4784201F09BFA91488F490968D9
:10164000405C0F2816DB23208E4908600EE08B4A91
:10165000128891B28B4A128890B24FF4466201F020
:1016600087FA88480068401C8649086085480068F9
:101670002828ECD381480068401C804908607F48D6
:101680000068F028CED310BD10B5F0207E49087058
:1016900000207E490870794908602EE004E0774810
:1016A0000068401C75490860754874490968405CC9
:1016B0000F28F4DD714800787349087004E06F4822
:1016C0000068401C6D4908606D486C490968405CC1
:1016D0000F28F4DC694800786C49087008460078E7
:1016E00069490978401A0F2802DBF0206349086035
:1016F00062480068401C6149086060480068F02842
:10170000CCD361480078C01E5F4908705F480078FC
:10171000801C5E4908701E20584908600CE057493B
:10172000098888B21F225949097801F021FA5348E3
:101730000068401C5149086050480068B0F58C7F33
:10174000EDD31E204D4908600CE04C49098888B251
:101750001F224D49097801F00BFA48480068401CE7
:101760004649086045480068B0F58C7FEDD31E20DF
:10177000424908600EE04149098888B24FF4784236
:1017800041490978323101F0F3F93C480068401CC6
:101790003A49086039480068B0F58C7FEBD30120E6
:1017A0003B4908703848007838490978884202DD9A
:1017B00000203749087034480078F02802D03348B8
:1017C000007810B9002032490870304800782E495E
:1017D0000978401A0F2802DA00202D49087010BD40
:1017E0002DE9F0410020224908804FF4A0702149E2
:1017F000088007464FF000082348047873E01E2550
:101800006CE02146284601F0B2FA86B23046FEF777
:10181000DFFD20480168204807F0F8FE5CD21F4930
:101820001C48006807F0F2FE56D21D4801681D48AA
:1018300007F0ECFE50D21C49194837E05B0000204D
:1018400080000020420000204000002046000020D0
:10185000440000204A0000204800002052000020E0
:101860005000002056000020540000201F000020DF
:1018700034000020360000201E000020040000205C
:10188000AE1A0020080000201800002017000020D9
:10189000260000203000002000007A4300003E4374
:1018A0002C0000200000704200007041006807F02A
:1018B000ADFE11D2FE480168FE4807F0A7FE0BD22C
:1018C000FD49FB48006807F0A1FE05D2BD4200DAE1
:1018D0002F46454500DDA846681C85B2B5F5917FC9
:1018E0008FDB601C84B2F5480078844287DBF448C3
:1018F0000780A8F13200F3490880F348047807E034
:10190000F8222146EE48008801F032F9601C84B2CA
:10191000EA4800788442F3DBEB48047808E04FF4AF
:1019200078422146E748008801F022F9601C84B221
:10193000E24800788442F2DBBDE8F0812DE9F04F07
:1019400089B04FF0000AD346002007901E20069071
:101950003C2005901E200490DB490978D74A127874
:10196000881800EBD071C1F347010891D448B0F852
:1019700000802FE04046089901F0F9F987B2FC1287
:10198000C7F3451507F01F060A2C1FDD192D1DDDB5
:101990000F2E1BDD1E2C19DC3C2D17DC1E2E15DC3A
:1019A000A24500DAA246AB4500DAAB460798B04242
:1019B00000DA07960698A04200DD06940598A84232
:1019C00000DD05950498B04200DD049608F10100A1
:1019D0001FFA80F8BB4800888045CBDB06990AEBEC
:1019E000010000EBD071C1F34701039105990BEBA6
:1019F000010000EBD071C1F347010291049A0799ED
:101A0000881800EBD071C1F347010191AE4890F8FE
:101A100000902EE0AA48B0F8008022E049464046F7
:101A200001F0A5F987B2FC12C7F3451507F01F06B0
:101A3000039884420CDB0298854209DB01988642B8
:101A400006DB4FF6FF724946404601F091F804E08C
:101A500000224946404601F08BF808F101001FFAC8
:101A600080F8984800888045D8DB09F101001FFA0A
:101A700080F9924800788145CCDB44F6206001F083
:101A8000FBF909B0BDE8F08F10B500208F49086060
:101A90001CE08F488D490968405C38B98B4909883A
:101AA00088B21F22002101F063F80AE0884A874BC0
:101AB0001B68D15C854A128890B24FF4784201F0DD
:101AC00057F882480068401C804908607F480068D9
:101AD000B0F5A07FDDD310BD2DE9F04F89B04FF0F8
:101AE000000AD346002007901E2006903C20059057
:101AF0001E20049074490978704A1278881800EB07
:101B0000D071C1F3470108916D4804882FE0204649
:101B1000089901F02CF91FFA80F84FEAE825C8F37C
:101B2000451608F01F070A2D1FDD192E1DDD0F2F8A
:101B30001BDD1E2D19DC3C2E17DC1E2F15DCAA45E3
:101B400000DAAA46B34500DAB3460798B84200DA8D
:101B500007970698A84200DD06950598B04200DD7B
:101B600005960498B84200DD0497601C84B255487D
:101B700000888442CBDB06990AEB010000EBD071B0
:101B8000C1F34701039105990BEB010000EBD07104
:101B9000C1F347010291049A0799881800EBD071AC
:101BA000C1F347010191002404E000204849085591
:101BB000601C84B2B4F5A07FF7DB434890F8009036
:101BC00034E03F480088401C84B227E04946204664
:101BD00001F0CDF81FFA80F84FEAE825C8F3451662
:101BE00008F01F070398854211DB029886420EDB3E
:101BF000019887420BDB4FF6FF724946204600F002
:101C0000B7FF3348005D401C3149085504E000220D
:101C10004946204600F0ACFF601C84B22948008889
:101C20008442D3DB09F101001FFA80F923480078D0
:101C30008145C6DB09B0BDE8F08F10B5002023490F
:101C4000086009E000202349204A126888541F4890
:101C50000068401C1D4908601C480068F028F1D34A
:101C60004FF4A07016490880002016490880F02320
:101C70004FF4A0720021084600F02BFF012211034F
:101C8000154801F0D6FE00BF0121134801F071FD97
:101C90000128F9D0002220210F4801F0CAFE0122BC
:101CA00020210D4801F0C5FE012202210A4815E05D
:101CB000280000200000C842000034421700002025
:101CC000340000203600002018000020040000200E
:101CD0009E1B0020AE1A00200010014001F0A9FE5A
:101CE00000BF0121FA4801F044FD0028F9D000BFEF
:101CF0000121F74801F03DFD0128F9D00022022121
:101D0000F34801F096FE01F071FA0020F1490860F5
:101D10007CE00020F04908606EE01020EC4948614A
:101D2000EE480068EE4908801020E94908614861E2
:101D3000EA480068C0B2EB4908801020E449086115
:101D4000E8480088E649097840EA0120E649088029
:101D500008460088C012E5490870E3480088C0F3CF
:101D60004510E3490870E048007800F01F00E149A1
:101D70000870DE480078E0490978884210DDDC48C8
:101D80000078DE49097888420ADBDA480078DC49C5
:101D90000978884204DB4FF6FF70D349088002E0DF
:101DA0000020D1490880D0480088D6490988884257
:101DB00009D0D548C7490968405C401CC1B2D24827
:101DC000C44A12688154C8480088CE490880C54872
:101DD0000088C349097840EA0120C34908800846C1
:101DE0000088CA490860C814B94948610861BA48FE
:101DF0000068401CB8490860B7480068B0F5A07F8B
:101E00008BD3B4480068401CB2490860B1480068F0
:101E1000F028FFF47EAFFFF7DBFBFFF735FCBC4893
:101E20000078012817D1FFF7DBFCBA480088BA49CF
:101E30000988884202DD0020B5490870B54800884D
:101E4000B0F5917F04DCB4480088B0F5917F02DDE5
:101E50000020AF490870AE48007801285BD1FFF739
:101E60003BFEFFF711FEFEF7A2FE0446082C02D14E
:101E7000FFF7BEF84FE046F2666000F053FE002325
:101E80004D22C821082000F086FE00236522C821CB
:101E9000102000F080FE00236122C821182000F0ED
:101EA0007AFE00237322C821202000F074FE002354
:101EB0007522C821282000F06EFE00237222C8215E
:101EC000302000F068FE00236522C821382000F091
:101ED00062FE00234622C821482000F05CFE002359
:101EE0006122C821502000F056FE00236922C8213B
:101EF000582000F050FE00236C22C821602000F022
:101F00004AFE00236C22C821682000F044FE4FF4F2
:101F1000487000F0B1FF10BD10B500206D49086099
:101F200009E0002078496B4A1268885469480068C3
:101F3000401C6849086067480068F028F1D34FF4F6
:101F4000A07074490880002073490880F0234FF482
:101F5000A0720021084600F0BCFD012211035C487C
:101F600001F067FD00BF0121594801F002FC012882
:101F7000F9D000222021564801F05BFD01222021EA
:101F8000534801F056FD01220221514801F051FD54
:101F900000BF01214E4801F0ECFB0028F9D000BF42
:101FA00001214B4801F0E5FB0128F9D00022022174
:101FB000474801F03EFD01F019F90020454908604D
:101FC0007BE00020444908606DE0102040494861F2
:101FD000424800684249088010203D490861486134
:101FE0003E480068C0B23F49088010203849086167
:101FF0003C4800883A49097840EA01203A4908807B
:1020000008460088C0123949087037480088C0F374
:102010004510374908703448007800F01F003549F2
:1020200008703248007834490978884210DD304819
:1020300000783249097888420ADB2E480078304916
:102040000978884204DB4FF6FF702749088002E0D8
:10205000002025490880244800882A4909888842A8
:1020600008D029481B490968405C401C2649194A88
:10207000126888541C480088224908801948008842
:102080001749097840EA0120174908800846008866
:102090001E490860C8140E49486108610E4800686E
:1020A000401C0D4908600C480068B0F5A07F8CD337
:1020B00008480068401C0749086006480068F02886
:1020C000FFF47FAFFFF784FAFFF7DEFA10BD0000E0
:1020D0000010014004000020080000200808014012
:1020E0000C0000200E000020100000201400002032
:1020F0001500002016000020580000205900002084
:102100005A00002012000020AE1A00200C0C0140E2
:1021100026000020340000203600002010B5F023F7
:102120004FF4A0720021084600F0D3FC01221103F5
:10213000F94801F07EFC00BF0121F74801F019FBCE
:102140000128F9D000222021F34801F072FC01227D
:102150002021F14801F06DFC01220221EE4801F03E
:1021600068FC00BF0121EC4801F003FB0028F9D016
:1021700000BF0121E84801F0FCFA0128F9D0002253
:102180000221E54801F055FC01F030F80020E34958
:10219000086055E00020E249086047E01020DE4971
:1021A0004861E0480068E04908801020DA49086189
:1021B0004861DC480068C0B2DC4908801020D6497C
:1021C0000861DA480088D849097840EA0120D849EE
:1021D000088008460088C012D6490870D448008894
:1021E000C0F34510D4490870D148007800F01F00B2
:1021F000D2490870CF4800781D280ADACE48007806
:102200003B2806DA084600781D2802DA0020C84973
:102210000880C7480088CA490860C814BE49486198
:102220000861BF480068401CBD490860BC480068A0
:10223000B0F5A07FB2D3B9480068401CB749086028
:10224000B6480068F028A5D310BD08B548208DF821
:10225000030003208DF802000120ADF8000069465C
:10226000AD4801F0C1F908BD70B50446B54810F895
:10227000340040B1322101EB0412B24911F83400AC
:102280000921FEF715FCAF4800EBC40040780A288E
:102290000DDAAC4800EBC4004078AB4B1A5C32203E
:1022A00000EB04110123192000F03CFD0CE0A548CF
:1022B00000EBC4004078A44B1A5C322000EB041100
:1022C0000023192000F067FC322000EB04110023EA
:1022D0002E22212000F05FFC9A4800EBC400807899
:1022E0000A280DDA974800EBC4008078964B1A5CF8
:1022F000322000EB04110123292000F013FD0CE033
:10230000904800EBC40080788F4B1A5C322000EBC1
:1023100004110023292000F03EFC8A4800EBC40091
:10232000C0780A280DDA874800EBC400C078864BD5
:102330001A5C322000EB04110123312000F0F2FC82
:102340000CE0804800EBC400C0787F4B1A5C322060
:1023500000EB04110023312000F01DFC794800EB54
:10236000C40000790A280DDA764800EBC400007931
:10237000754B1A5C322000EB04110123392000F068
:10238000D1FC0CE06F4800EBC40000796E4B1A5C86
:10239000322000EB04110023392000F0FCFB6948D7
:1023A00000EBC40040790A280DDA664800EBC4004F
:1023B0004079654B1A5C322000EB04110123412067
:1023C00000F0B0FC0CE05F4800EBC40040795E4BCD
:1023D0001A5C322000EB04110023412000F0DBFBEB
:1023E000584800EBC40080790A280DDA554800EB04
:1023F000C4008079544B1A5C322000EB0411012395
:10240000492000F08FFC0CE04E4800EBC4008079BE
:102410004D4B1A5C322000EB04110023492000F0E0
:10242000BAFB484800EBC400C579322000EB041128
:1024300006232A46642000F075FC3C2D0ADA4FF68C
:10244000FF7000EAC502322000EB0411A82000F062
:1024500008FC14E03C2095FBF0F04FF4FA7148437F
:102460003C2195FBF1F201FB125100EBC10086B259
:10247000322000EB04113246A82000F0F2FB70BDC0
:1024800010B53248008800F00100002837D0FDF771
:1024900019FF2F4800783C2831D12A48007820B114
:1024A0002848C079401C2749C8712648007A28B1BD
:1024B0002448C07B401CC1B22248C1732148007C23
:1024C00028B12048C07D401CC1B21E48C1751D48BE
:1024D000007E28B11B48C07F401CC1B21948C1779B
:1024E000184890F8200038B1164890F82700401C92
:1024F000C1B2144880F8271000201549087014480C
:102500000078401C124908701048008820F0010033
:102510000E49088010BD000000100140040000209A
:1025200008000020080801400C0000200E000020D8
:1025300010000020140000201500002016000020CC
:102540000C0C0140741D00205B00002010040040B2
:102550007F00002010B50121022002F015F842F2A0
:1025600010706B49888043F2FF1008800020C880FB
:102570004880684803F0CAF901224121654804F007
:1025800099FA0121634804F010FA10BD10B5002338
:102590004E220A21232000F0FEFA002375220A2190
:1025A0002B2000F0F8FA00236D220A21332000F0DE
:1025B000F2FA002362220A213B2000F0ECFA002309
:1025C00065220A21432000F0E6FA002372220A2144
:1025D0004B2000F0E0FA002354220A216B2000F087
:1025E000DAFA002369220A21732000F0D4FA0023CA
:1025F0006D220A217B2000F0CEFA002365220A21F9
:10260000832000F0C8FA002350220A21AB2000F0FA
:10261000C2FA002372220A21B32000F0BCFA002380
:1026200069220A21BB2000F0B6FA002363220A21A6
:10263000C32000F0B0FA002365220A21CB2000F06D
:10264000AAFA10BD10B504462146334802F019FC21
:1026500000BF8021304802F0F3FD0028F9D010BD02
:1026600070B505460E46002404E0285DFFF7EAFF3A
:10267000601CC4B2B442F8DB70BD1020FDF7DFFD72
:1026800000F04AFC00F074F800F0EEF800F01CFFD7
:10269000FFF7DBFD00F01CFD002208211F4801F0C0
:1026A000C8F900F04FFCFFF755FF46F2666000F0F6
:1026B00039FA00BF00F0D7FE0028FBD04FF4784075
:1026C00000F030FA642000F0EEFB022418201449D8
:1026D000087035201349087018201349087016E057
:1026E000012C01D8FFF7A9FA012C0CD9FFF714FC33
:1026F00007210E48FFF7B4FFC4F115020223DC21C5
:102700001E2000F00FFB142C00D10024641CE7E70E
:10271000A41A0020000400400038014000100140CD
:1027200058000020590000205A000020800000209E
:102730000948804709480047FEE7FEE7FEE7FEE755
:10274000FEE7FEE7FEE7FEE7FEE7FEE70448054991
:10275000054A064B70470000378F0008ED0000085F
:10276000001E002000240020002000200020002067
:1027700008B50121192001F0DEFE0121F94801F020
:102780005DFA10208DF8030003208DF802004FF44D
:102790000070ADF800006946F34800F025FF4FF4E3
:1027A0008060ADF800006946EF4800F01DFF4FF46F
:1027B0000060ADF800006946EB4800F015FF4FF4EB
:1027C0008050ADF800006946E74800F00DFF4FF477
:1027D0008070ADF800006946E34800F005FF4FF651
:1027E000FF70ADF800006946E04800F0FDFE0122F0
:1027F0009102DD4801F01DF90122D102DA4801F011
:1028000018F901221103D84801F013F900224FF4FE
:102810000071D54801F00DF908BD10B50446D34844
:102820000C3004600022C114CF4801F002F90122EB
:10283000D102CD4801F0FDF810BD10B504460022CC
:102840004FF48051C84801F0F4F82046FFF7E5FF47
:1028500010BD10B5044601221103C34801F0E9F888
:102860002046FFF7DAFF10BD10B501221102BE4865
:1028700001F0DFF80A2000F016FB00224FF480710F
:10288000B94801F0D6F80A2000F00DFB0122110230
:10289000B54801F0CEF80A2000F005FBCF20FFF785
:1028A000CCFF0020FFF7D5FFC120FFF7D2FF30207B
:1028B000FFF7CFFFED20FFF7C0FF6420FFF7C9FF50
:1028C0000320FFF7C6FF1220FFF7C3FF8120FFF7A9
:1028D000C0FFE820FFF7B1FF8520FFF7BAFF102007
:1028E000FFF7B7FF7A20FFF7B4FFCB20FFF7A5FF74
:1028F0003920FFF7AEFF2C20FFF7ABFF0020FFF7DA
:10290000A8FF3420FFF7A5FF0220FFF7A2FFF72062
:10291000FFF793FF2020FFF79CFFEA20FFF78DFFD2
:102920000020FFF796FF0020FFF793FFC020FFF77E
:1029300084FF1B20FFF78DFFC120FFF77EFF0120E2
:10294000FFF787FFC520FFF778FF3020FFF781FFF3
:102950003020FFF77EFFC720FFF76FFFB720FFF79C
:1029600078FF3620FFF769FF4820FFF772FF3A2013
:10297000FFF763FF5520FFF76CFFB120FFF75DFF06
:102980000020FFF766FF1A20FFF763FFB620FFF76E
:1029900054FF0A20FFF75DFFA220FFF75AFFF22045
:1029A000FFF74BFF0020FFF754FF2620FFF745FFFE
:1029B0000120FFF74EFFE020FFF73FFF0F20FFF75A
:1029C00048FF2A20FFF745FF2820FFF742FF082095
:1029D000FFF73FFF0E20FFF73CFF0820FFF739FF0E
:1029E0005420FFF736FFA920FFF733FF4320FFF7FE
:1029F00030FF0A20FFF72DFF0F20FFF72AFF0020EE
:102A0000FFF727FF0020FFF724FF0020FFF721FF3B
:102A10000020FFF71EFFE120FFF70FFF0020FFF768
:102A200018FF1520FFF715FF1720FFF712FF0720EB
:102A3000FFF70FFF1120FFF70CFF0620FFF709FF3C
:102A40002B20FFF706FF5620FFF703FF3C20FFF780
:102A500000FF0520FFF7FDFE1020FFF7FAFE0F2014
:102A6000FFF7F7FE3F20FFF7F4FE3F20FFF7F1FEF0
:102A70000F20FFF7EEFE2B20FFF7DFFE0020FFF711
:102A8000E8FE0020FFF7E5FE0120FFF7E2FE3F2011
:102A9000FFF7DFFE2A20FFF7D0FE0020FFF7D9FE68
:102AA0000020FFF7D6FE0020FFF7D3FEEF20FFF750
:102AB000D0FE1120FFF7C1FE782000F0DDF92920BB
:102AC000FFF7BBFE3620FFF7B8FE6C20FFF7C1FE14
:102AD00010BD2DE9F04104460D4616461F462A203A
:102AE000FFF7ABFE2012FFF7B4FEE0B2FFF7B1FE36
:102AF0003012FFF7AEFEF0B2FFF7ABFE2B20FFF770
:102B00009CFE2812FFF7A5FEE8B2FFF7A2FE3812DE
:102B1000FFF79FFEF8B2FFF79CFE2C20FFF78DFE1B
:102B2000BDE8F08170B50646F0234FF4A072002195
:102B30000846FFF7CEFF012211030B4800F079FF92
:102B400000240AE0002504E03046FFF766FE681C1A
:102B500085B2F02DF8DB601C84B2B4F5A07FF1DB08
:102B600070BD00000002300000100140000C014068
:102B700070B504460D4616462B4622462946204689
:102B8000FFF7A7FF01221103B24800F052FF3046C1
:102B9000FFF743FE70BD2DE9F04706460F4690460D
:102BA0009A46A8F1200000F0FF08BAF1000F26D1E4
:102BB000002421E0A84800EB081010F8049000253C
:102BC00016E009F0010040B13A1991B2721990B2C1
:102BD0004FF6FF72FFF7CCFF06E03A1991B2721977
:102BE00090B20022FFF7C4FF4FEA6909681CC5B222
:102BF000082DE6DB601CC4B2122CDBDB1DE00024D8
:102C000019E0954800EB081010F8049000250EE03C
:102C100009F0010038B13A1991B2721990B24FF629
:102C2000FF72FFF7A5FF4FEA6909681CC5B20A2DBC
:102C3000EEDB601CC4B2142CE3DBF0234FF4A07273
:102C400000210846FFF745FFBDE8F08710B50246B2
:102C5000012000E050430B00A1F10104E1B2F9D1E1
:102C600010BD2DE9F04104460E46154642F21070A3
:102C700095FBF0F03030C7B200233A46314620468B
:102C8000FFF789FF4FF47A7095FBF0F00A2190FB73
:102C9000F1F201FB12003030C7B204F1080188B232
:102CA00000233A463146FFF776FF642095FBF0F0AB
:102CB0000A2190FBF1F201FB12003030C7B204F19F
:102CC000100188B200233A463146FFF764FF04F151
:102CD000180188B200232E223146FFF75CFF0A203C
:102CE00095FBF0F00A2190FBF1F201FB120030306D
:102CF000C7B204F1200188B200233A463146FFF7FB
:102D00004AFF0A2095FBF0F100FB11503030C7B2AA
:102D100004F1280188B200233A463146FFF73BFF11
:102D2000BDE8F0812DE9F0470646894617461D4665
:102D3000002418E0281B401EC1B20A20FFF786FFBE
:102D4000B7FBF0F00A21B0FBF1F201FB120808F129
:102D50003001CAB206EBC40188B200234946FFF72E
:102D60001AFF601CC4B2AC42E4DBBDE8F0872DE979
:102D7000F04104460D46B4F5A07F01DAF02D02DBE8
:102D80000020BDE8F0812B46224629462046FFF769
:102D9000A0FE2E20FFF751FD4FF088302F4908602C
:102DA000091D08604FF6FF702C490C3108600122A4
:102DB0008914284800F03DFE00224FF40071254898
:102DC00000F037FE00224FF48061224800F031FE0F
:102DD000642000F05DF8012291021E4800F029FEF7
:102DE00000224FF480611B4800F023FE642000F0B5
:102DF0004FF81A480830006886B20122910215483F
:102E000000F017FE00224FF48061124800F011FE1E
:102E10001248083000681FFA80F8012291020D481C
:102E200000F007FEF7B24FF6FF7000EA07274FF0F9
:102E300033300A490860091D08604FF6FF700749E2
:102E40000C310860F012C002B91240EA411040EAA9
:102E5000E82096E7001001405A970008000C014056
:102E6000014606E04FF4FA7200E0521E002AFCD13F
:102E7000491E0029F6D17047014606E043F6982224
:102E800000E0521E002AFCD1491E0029F6D17047ED
:102E9000014605E0142200E0521E002AFCD1491E22
:102EA0000029F7D17047014642F228324A434FF0D9
:102EB000E0235A6100229A6101221A6100BF4FF09B
:102EC000E022106900F001021AB100F48032002AF9
:102ED000F5D000224FF0E0231A619A617047014655
:102EE00001EBC1024FF0E0235A6100229A610122F6
:102EF0001A6100BF4FF0E022106900F001021AB120
:102F000000F48032002AF5D000224FF0E0231A614D
:102F10009A61704700BFFEE708B50121102001F05B
:102F20000AFB4FF40050ADF8000010208DF80300AC
:102F300003208DF802006946014800F055FB08BDEA
:102F40000010014000B585B00121052001F0F3FA21
:102F50000121880301F0EFFA18208DF813004FF4D7
:102F60000070ADF8100003208DF8120004A9564837
:102F700000F03AFB04208DF813000002ADF81000B9
:102F800004A9514800F030FB4FF4E13000900020DC
:102F9000ADF80400ADF80600ADF80800ADF80C007F
:102FA0000C20ADF80A006946484801F040FC0121B8
:102FB000464801F080FD05B000BD10B5044600BFD5
:102FC0004021424802F03CF90028F9D0E1B23F48E4
:102FD00001F057FF10BD10B500BF20213B4802F0A3
:102FE0002FF90028F9D0394801F072FF10BD2DE902
:102FF000F04104460A20B4FBF0F100FB11456420C7
:10300000B4FBF0F100FB11400A21B0FBF1F64FF4E4
:103010007A70B4FBF0F100FB11406421B0FBF1F0D9
:10302000C7B24FF47A70B4FBF0F000F0FF0808F17B
:103030003000FFF7C2FF07F13000FFF7BEFF06F1D7
:103040003000FFF7BAFF05F13000FFF7B6FF0D20A3
:10305000FFF7B3FF0A20FFF7B0FFBDE8F0812DE9CD
:10306000F04104460A20B4FBF0F100FB1145642056
:10307000B4FBF0F100FB11400A21B0FBF1F64FF474
:103080007A70B4FBF0F100FB11406421B0FBF1F069
:10309000C7B24FF47A70B4FBF0F000F0FF0808F10B
:1030A0003000FFF78AFF07F13000FFF786FF06F1D7
:1030B0003000FFF782FF05F13000FFF77EFF202090
:1030C000FFF77BFFBDE8F0810008014000380140B8
:1030D00008B50121102001F02EFA0121102001F085
:1030E0002AFA0121102001F026FA0121102001F016
:1030F00022FA0121102001F01EFA0121102001F016
:103100001AFA0121102001F016FA0121102001F015
:1031100012FA10208DF8030003208DF8020002201F
:10312000ADF800006946E54800F05EFA0420ADF80D
:1031300000006946E14800F057FA0820ADF80000A9
:103140006946DE4800F050FA1020ADF800006946EC
:10315000DA4800F049FA2020ADF800006946D74867
:1031600000F042FA4020ADF800006946D34800F074
:103170003BFA8020ADF800006946D04800F034FAF0
:103180004FF40050ADF800006946CC4800F02CFA2E
:103190000121042001F0CFF948208DF803004FF6FB
:1031A000FF70ADF800006946C54800F01DFA08BD83
:1031B00008B548208DF8030003208DF80200802018
:1031C000ADF800006946BD4800F00EFA08BD08B52C
:1031D00010208DF8030003208DF802008020ADF848
:1031E00000006946B54800F0FFF908BD0420B34966
:1031F000486110204861086148610420086110207E
:103200000861704710B501228021AC4800F011FC24
:103210000220FFF725FE01224021A84800F009FC0A
:103220000220FFF71DFE00228021A44800F001FCCF
:103230000220FFF715FE00224021A04800F0F9FB14
:103240000220FFF70DFE10BD10B5002280219B4823
:1032500000F0EFFB0220FFF703FE01224021974818
:1032600000F0E7FB0220FFF7FBFD012280219348DD
:1032700000F0DFFB0220FFF7F3FD10BD10B50122C7
:1032800080218E4800F0D5FB0220FFF7E9FD0122E6
:1032900040218A4800F0CDFB0220FFF7E1FD00222B
:1032A0004021864800F0C5FB0220FFF7D9FD00222F
:1032B0008021824800F0BDFB0220FFF7D1FD10BD48
:1032C00010B5FFF775FF012280217C4800F0B1FBAB
:1032D0000220FFF7C5FD01224021784800F0A9FB3C
:1032E0000220FFF7BDFD8021744800F042FA044639
:1032F0000220FFF7B5FD00224021704800F099FB45
:103300000220FFF7ADFDFFF762FF002280216B482E
:1033100000F08FFB0CB9012010BD0020FCE770B558
:10332000054600241CE005FA04F0C0F3C012802119
:10333000624800F07EFB0220FFF792FD012240214F
:103340005E4800F076FB0220FFF78AFD0022402154
:103350005A4800F06EFB0220FFF782FD601CC4B2E9
:10336000082CE0DB00228021544800F062FBFFF7CC
:10337000A7FF70BD70B50025FFF71AFF00241CE001
:10338000012240214D4800F054FB0220FFF768FD68
:1033900080214A4800F0EDF910B18020204105431A
:1033A0000220FFF75DFD00224021444800F041FB70
:1033B0000220FFF755FD601CC4B2082CE0DBFFF7CC
:1033C00006FF002280213D4800F033FB284670BDF7
:1033D00070B505460C46FFF715FF4220FFF79FFF2B
:1033E00018B9FFF731FF002070BD2846FFF797FF9F
:1033F00018B9FFF729FF0020F6E72046FFF78FFFF7
:1034000018B9FFF721FF0020EEE7FFF71DFF0120AD
:10341000EAE770B505460C46FFF7F4FE4220FFF7D9
:103420007EFF18B9FFF710FF002070BD2846FFF798
:1034300076FF18B9FFF708FF0020F6E7FFF704FF53
:10344000FFF7E0FE4320FFF76AFF18B9FFF7FCFE25
:103450000020EAE7FFF78EFF2070FFF70FFFFFF76E
:10346000F3FE0120E1E738B50024802000909DF8AC
:1034700000101220FFF7ACFF08B9002038BD6946E4
:103480000B20FFF7C6FF08B90020F7E79DF8000002
:10349000732811D100240DE00A4A02EB440251784E
:1034A000084A12F81400FFF793FF08B90020E5E777
:1034B000601CC4B2B82CEFDB0120DFE70010014034
:1034C000000801404A9D000808B50121042001F0D0
:1034D00032F848208DF8030003208DF802004FF4E5
:1034E0000040ADF800006946014800F07DF808BDD5
:1034F0000008014010B50446FC48844211D0FC4845
:1035000084420ED0FB4884420BD0FB48844208D052
:10351000FA48844205D0FA48844202D0F9488442ED
:1035200000D103E06F21F8A0FFF7F4FCEF488442DC
:1035300008D10121042001F050F80021042001F0FD
:103540004CF846E0EA48844208D10121082001F005
:1035500044F80021082001F040F83AE0E5488442B0
:1035600008D10121102001F038F80021102001F0CD
:1035700034F82EE0E048844208D10121202001F0F7
:103580002CF80021202001F028F822E0DB488442BA
:1035900008D10121402001F020F80021402001F055
:1035A0001CF816E0D648844208D10121802001F0A1
:1035B00014F80021802001F010F80AE0D14884427C
:1035C00007D10121801501F008F80021A01501F0B4
:1035D00004F810BD10B50121084600F0FEFF0021DF
:1035E000012000F0FAFF10BD2DE9F05F05460C4602
:1035F0004FF00009CA4600260027B046B346BB4834
:10360000854211D0BA4885420ED0BA4885420BD0C7
:10361000B948854208D0B948854205D0B8488542A6
:1036200002D0B848854200D103E0B221B6A0FFF72E
:1036300071FCE078A0B1E078042811D0E078282867
:103640000ED0E07848280BD0E078142808D0E07835
:10365000102805D0E0781C2802D0E078182800D186
:1036600003E0B321A8A0FFF755FC002010B9208883
:1036700000B103E0B421A4A0FFF74CFCE07800F017
:103680000F09E07800F0100080B1A078012805D083
:10369000A078022802D0A078032800D103E0BB2143
:1036A00099A0FFF737FCA07840EA0909207838B3E1
:1036B000D5F8008000261FE0012000FA06F72088D8
:1036C00000EA070ABA4516D1B7000F2000FA07FB37
:1036D00028EA0B0809FA07F040EA0808E0782828E9
:1036E00003D10120B040686105E0E078482802D1AC
:1036F0000120B0402861761C082EDDD3C5F800807B
:103700002088FF282BDDD5F80480002623E006F171
:103710000800012101FA00F7208800EA070ABA45EB
:1037200018D1B7000F2000FA07FB28EA0B0809FAA6
:1037300007F040EA0808E078282803D106F10800DD
:1037400081406961E078482804D106F10800012130
:1037500081402961761C082ED9D3C5F80480BDE8C4
:10376000F09F4FF6FF710180022181700421C1702A
:10377000704770B505460C4600265C48854211D05E
:103780005B4885420ED05B4885420BD05A48854243
:1037900008D05A48854205D05948854202D0594838
:1037A000854200D104E04FF48F7157A0FFF7B2FBC0
:1037B000012C25D0022C23D0042C21D0082C1FD082
:1037C000102C1DD0202C1BD0402C19D0802C17D0B1
:1037D000B4F5807F14D0B4F5007F11D0B4F5806FBC
:1037E0000ED0B4F5006F0BD0B4F5805F08D0B4F5FF
:1037F000005F05D0B4F5804F02D0B4F5004F00D182
:1038000004E040F21F1140A0FFF784FBA8682040AD
:1038100008B1012600E00026304670BD10B5044610
:103820003248844211D0324884420ED0314884421A
:103830000BD03148844208D03048844205D030480B
:10384000844202D02F48844200D104E04FF49A71A0
:103850002DA0FFF75FFBA06880B210BD70B50546D4
:103860000C4600262148854211D0214885420ED0C1
:10387000204885420BD02048854208D01F48854209
:1038800005D01F48854202D01E48854200D104E081
:103890004FF4A2711CA0FFF73DFB012C25D0022C98
:1038A00023D0042C21D0082C1FD0102C1DD0202C6C
:1038B0001BD0402C19D0802C17D0B4F5807F14D0A9
:1038C000B4F5007F11D0B4F5806F0ED0B4F5006F61
:1038D0000BD0B4F5805F08D0B4F5005F05D0B4F527
:1038E000804F02D0B4F5004F1ED123E00008014004
:1038F000000C01400010014000140140001801407C
:10390000001C0140002001402E2E5C4C6962726157
:1039100072795C7372635C73746D333266313078C4
:103920005F6770696F2E630040F24511AFF22800A7
:10393000FFF7F0FAE868204008B1012600E0002611
:10394000304670BD10B50446FE48844211D0FE4892
:1039500084420ED0FD4884420BD0FD48844208D0FA
:10396000FC48844205D0FC48844202D0FB48844293
:1039700000D105E04FF4AD71AFF27400FFF7CAFA61
:10398000E06880B210BD70B504460D46ED48844233
:1039900011D0ED4884420ED0EC4884420BD0EC4864
:1039A000844208D0EB48844205D0EB48844202D0E0
:1039B000EA48844200D105E040F26911AFF2B80054
:1039C000FFF7A8FA002008B905B105E04FF4B5717A
:1039D000AFF2CC00FFF79EFA256170BD70B50446CA
:1039E0000D46D848844211D0D74884420ED0D748DB
:1039F00084420BD0D648844208D0D648844205D0B1
:103A0000D548844202D0D548844200D105E040F236
:103A10007911AFF20C10FFF77DFA002008B905B15B
:103A200005E04FF4BD71AFF22010FFF773FA656146
:103A300070BD70B505460C461646C248854211D089
:103A4000C14885420ED0C14885420BD0C04885424E
:103A500008D0C048854205D0BF48854202D0BF4843
:103A6000854200D105E040F28D11AFF26410FFF7FE
:103A700051FA012C25D0022C23D0042C21D0082C63
:103A80001FD0102C1DD0202C1BD0402C19D0802CE6
:103A900017D0B4F5807F14D0B4F5007F11D0B4F501
:103AA000806F0ED0B4F5006F0BD0B4F5805F08D0F6
:103AB000B4F5005F05D0B4F5804F02D0B4F5004FE7
:103AC00000D105E04FF4C771AFF2C410FFF722FA3E
:103AD0000EB1012E00D105E040F28F11AFF2D810E7
:103AE000FFF718FA0EB12C6100E06C6170BD70B583
:103AF00004460D469348844211D0934884420ED028
:103B0000924884420BD09248844208D09148844223
:103B100005D09148844202D09048844200D105E00B
:103B20004FF4D271AFF22020FFF7F4F9E56070BDD9
:103B300070B504460D464FF480368248844211D059
:103B4000814884420ED0814884420BD08048844210
:103B500008D08048844205D07F48844202D07F4804
:103B6000844200D105E040F2B511AFF26420FFF7C6
:103B7000D1F9002008B905B105E04FF4DB71AFF2CF
:103B80007820FFF7C7F92E43A661A561A661A66953
:103B9000A66970BD70B505460C4600263DB1012DE5
:103BA00005D0022D03D0032D01D0042D00D105E056
:103BB0004FF4E971AFF2B020FFF7ACF9ECB1012C92
:103BC0001BD0022C19D0032C17D0042C15D0052C97
:103BD00013D0062C11D0072C0FD0082C0DD0092C97
:103BE0000BD00A2C09D00B2C07D00C2C05D00D2C97
:103BF00003D00E2C01D00F2C00D105E040F2D311E0
:103C0000AFF2FC20FFF786F9554806684FF6807042
:103C1000064046EA051626435148066070BD10B5B9
:103C200004460CB1012C00D105E04FF4F371AFF262
:103C30002830FFF76FF94B48C46110BD2DE9F047FC
:103C400004460E460027B8460025A946012C77D029
:103C5000022C75D0042C73D0082C71D042488442B9
:103C60006ED04148203084426AD04048844267D0B8
:103C70003E488030844263D03D48844260D03D4815
:103C800084425DD03C4884425AD03C48844257D05C
:103C90003B48844254D0B4F5805F51D0B4F5EA1F5C
:103CA0004ED0B4F5EB1F4BD0B4F5004F48D035489B
:103CB000844245D0401C844242D0801C84427FD044
:103CC000001D84427CD02F480F30844278D0B4F15C
:103CD000201F75D04FEAF030844271D02A488442C8
:103CE0006ED02A4884426BD02948844268D0294843
:103CF000844265D02848844262D0B4F5011F5FD069
:103D0000264884425CD0401C844259D0801C8442A6
:103D100056D0001D844253D020480F3084424FD0EB
:103D20001E481F3084424BD01C483F30844247D04D
:103D30001A487F30844243D01848FF3084422FE035
:103D40003EE0000000080140000C0140001001406E
:103D50000014014000180140001C014000200140F7
:103D60000000014000002042100014004000160036
:103D700000011800000218000003180000081A00D3
:103D8000000C1A0001002000000130000002300089
:103D900000043000001120000020200001000080FD
:103DA0000ED0664884420BD06548844208D06548EE
:103DB000844205D06448844202D06448844200D1E1
:103DC00005E040F22A21AFF2C040FFF7A3F80EB1A0
:103DD000012E00D105E040F22B21AFF2D440FFF7D5
:103DE00099F804F00040B0F1004F02D15848C5697D
:103DF00001E057484568C4F30349A7B204F44010F2
:103E0000B0F5401F08D125F070655148406820F09A
:103E100070604F49486013E004F48010B0F5801FD3
:103E200007D1032000FA09F825EA080545F0706576
:103E300006E0600D000107FA00F0854345F070656B
:103E400026B1600D010107FA01F0054304F00040BE
:103E5000B0F1004F02D13E48C56101E03C484560E9
:103E6000BDE8F08770B505460C4600265DB1012D12
:103E700009D0022D07D0032D05D0042D03D0052D28
:103E800001D0062D00D105E040F26521AFF2885047
:103E9000FFF740F8ECB1012C1BD0022C19D0032CF9
:103EA00017D0042C15D0052C13D0062C11D0072CBC
:103EB0000FD0082C0DD0092C0BD00A2C09D00B2CBC
:103EC00007D00C2C05D00D2C03D00E2C01D00F2CBC
:103ED00000D105E040F26621AFF2D450FFF71AF8A6
:103EE000A007010F0F2000FA01F619480830A110B1
:103EF00050F82100B04316490831A21041F82200C1
:103F00000846A11050F82100A107090F05FA01F198
:103F100008430F490831A21041F8220070BD10B5C6
:103F200004460CB1012C00D105E04FF41E71AFF234
:103F30002860FEF7EFFF0748046010BD0002008014
:103F40000004008000080080001000800020008035
:103F500000000140DC002042FE48006840F0010003
:103F6000FC49086008464068FB490840F949486038
:103F700008460068F9490840F649086008460068A4
:103F800020F4802008600846406820F4FE00486065
:103F90004FF41F008860704710B504462CB1B4F58B
:103FA000803F02D0B4F5802F00D104E040F211111F
:103FB000EBA0FEF7AFFFE748006820F48030E5494A
:103FC00008600846006820F480200860B4F5803F4F
:103FD00003D0B4F5802F0ED106E0DE48006840F42F
:103FE0008030DC49086007E0DA48006840F4A0202F
:103FF000D849086000E000BF00BF10BD2DE9F041C6
:104000000446002500260027212C13D0312C11D086
:10401000392C0FD0412C0DD0612C0BD07A2C09D02B
:104020007B2C07D07C2C05D07D2C03D07E2C01D09E
:104030007F2C00D104E040F23451C9A0FEF76AFFA2
:104040006511012D02D1C348066806E0022D02D198
:10405000C048066A01E0BF48466A04F01F05012017
:10406000A840304008B1012700E000273846BDE8ED
:10407000F08138B5002000900024002500BF3120D9
:10408000FFF7BCFF05460098401C00900098B0F573
:10409000A06F01D0002DF2D03120FFF7AFFF08B1A3
:1040A000012400E00024204638BD70B504460025F8
:1040B0001F2C00DC04E04FF4A971A9A0FEF72AFF31
:1040C000A448056825F0F80545EAC405056070BDFB
:1040D00010B504460CB1012C00D104E040F265118A
:1040E0009FA0FEF717FFA648046010BD70B50546F7
:1040F0000C4600262DB1B5F5803F02D0B5F5403F06
:1041000000D104E040F27F1195A0FEF703FF4CB30D
:10411000B4F5802F26D0B4F5002F23D0B4F5402F6E
:1041200020D0B4F5801F1DD0B4F5A01F1AD0B4F56F
:10413000C01F17D0B4F5E01F14D0B4F5001F11D084
:10414000B4F5101F0ED0B4F5201F0BD0B4F5301FFE
:1041500008D0B4F5401F05D0B4F5501F02D0B4F517
:10416000601F00D104E04FF4C0717DA0FEF7D2FEC5
:104170007848466826F47C1645EA040006437548EC
:10418000466070BD10B504460CB1012C00D104E0AE
:104190004FF4CA7172A0FEF7BDFE7948046610BDE7
:1041A00070B5044600251CB1012C01D0022C00D1B1
:1041B00004E04FF40E716AA0FEF7ACFE6548456856
:1041C00025F003052543456070BD6248406800F056
:1041D0000C00704770B5044600257CB1802C0DD0D2
:1041E000902C0BD0A02C09D0B02C07D0C02C05D01F
:1041F000D02C03D0E02C01D0F02C00D104E04FF4FF
:10420000197157A0FEF786FE5248456825F0F00563
:104210002543456070BD70B5044600255CB1B4F51A
:10422000806F08D0B4F5A06F05D0B4F5C06F02D090
:10423000B4F5E06F00D104E040F27E2148A0FEF723
:1042400069FE4448456825F4E0652543456070BD36
:1042500070B5044600255CB1B4F5806F08D0B4F5A4
:10426000A06F05D0B4F5C06F02D0B4F5E06F00D1F7
:1042700004E04FF426713AA0FEF74CFE354845683D
:1042800025F4605545EAC405456070BD70B5044627
:104290000D4604F0E00008B904B104E040F2BF218B
:1042A0002FA0FEF737FE0DB1012D00D104E04FF431
:1042B00030712BA0FEF72EFE2DB12648407A204308
:1042C0002449487204E02348407AA04321494872B7
:1042D00070BD10B504460CB1012C00D104E040F2D1
:1042E000DB211FA0FEF716FE2548D830046010BD64
:1042F00070B50446002544B1B4F5804F05D0B4F53F
:10430000004F02D0B4F5404F00D104E040F202313A
:1043100013A0FEF7FFFD0F48456825F440452543EF
:10432000456070BD10B504461CB1012C01D0042CB1
:1043300000D104E04FF4507109A0FEF7EBFD00201E
:10434000044920310870034981F82000012C1BD05A
:10435000042C17E0001002400000FFF8FFFFF6FEFB
:104360002E2E5C4C6962726172795C7372635C734D
:10437000746D3332663130785F7263632E63000090
:104380000000424208D103E00120F449087004E033
:104390000520F249087000E000BF00BF10BD10B555
:1043A00004460CB1012C00D105E040F26131AFF2BE
:1043B0005000FEF7AFFDEA48046010BD10B504469A
:1043C000B4F5807F05D0B4F5007F02D0B4F5407F0E
:1043D00000D105E040F27231AFF27C00FEF79AFDA9
:1043E000DE482038006A2043DC492039086210BDCD
:1043F00010B504460CB1012C00D105E04FF46071FA
:10440000AFF2A400FEF786FDD5484438046010BD25
:1044100030B50021002200240023D04D203D6D68DE
:1044200005F00C0121B1042905D0082926D105E0A9
:10443000CC4D056025E0CB4D056022E0C74D203D09
:104440006D6805F47012C54D203D6D6805F480342B
:10445000022505EB92421CB9C34D554305600CE0A3
:10446000BE4D203D6D6805F400351DB1BE4D554370
:10447000056002E0BB4D5543056002E0B94D0560A3
:1044800000BF00BFB54D203D6D6805F0F001090982
:10449000B64D6B5C0568DD404560B04D203D6D68F4
:1044A00005F4E061090AB14D6B5C4568DD4085604B
:1044B000AA4D203D6D6805F46051C90AAB4D6B5C97
:1044C0004568DD40C560A54D203D6D6805F440415F
:1044D000890BA74D6B5CC568B5FBF3F5056130BD75
:1044E00070B504460D4640F2575024EA000008B962
:1044F00004B105E040F22B41AFF29C10FEF70AFD3B
:104500000DB1012D00D105E040F22C41AFF2B01009
:10451000FEF700FD3DB191482038406920438F49A6
:104520002039486106E08D4820384069A0438B4916
:104530002039486170BD70B504460D468D48204055
:1045400008B904B105E040F24A41AFF2EC10FEF7C1
:10455000E1FC0DB1012D00D105E040F24B41AFF27D
:104560000020FEF7D7FC3DB17C482038806920430D
:104570007A492039886106E0784820388069A0436C
:1045800076492039886170BD70B504460D467A4879
:10459000204008B904B105E040F26941AFF2402083
:1045A000FEF7B8FC0DB1012D00D105E040F26A41E3
:1045B000AFF25420FEF7AEFC3DB168482038C06928
:1045C000204366492039C86106E064482038C06944
:1045D000A04362492039C86170BD70B504460D46DC
:1045E0006448204008B904B105E040F2A441AFF2AC
:1045F0009020FEF78FFC0DB1012D00D105E040F2B7
:10460000A541AFF2A420FEF785FC3DB15348203808
:10461000C068204351492039C86006E04F4820381F
:10462000C068A0434D492039C86070BD70B50446CC
:104630000D465148204008B904B105E040F2C3419D
:10464000AFF2E420FEF766FC0DB1012D00D105E0CC
:1046500040F2C441AFF2F820FEF75CFC3DB13F48A8
:104660002038006920433D492039086106E03B4875
:1046700020380069A04339492039086170BD10B560
:1046800004460CB1012C00D105E04FF49B61AFF260
:104690003030FEF73FFC32484038046010BD10B5A2
:1046A00004460CB1012C00D105E040F2E541AFF227
:1046B0005030FEF72FFC3148C46410BD10B50446DD
:1046C0003CB1052C05D0042C03D0062C01D0072CBE
:1046D00000D105E040F20551AFF27C30FEF71AFC44
:1046E0001E482038C47110BD1C482038406A40F074
:1046F00080701A4920394862704770B50446002519
:10470000012C09D0022C07D0042C05D0082C03D092
:10471000102C01D0802C00D105E040F27E51AFF288
:10472000C030FEF7F7FB0D4820388068204008B104
:10473000012500E00025284670BD10B5044604F0B0
:10474000600008B904B105E040F2AB51AFF2F030BF
:10475000FEF7E0FB01482038847210BD20100240B3
:104760008004424200127A0000093D00791A0020BC
:10477000891A00200200C0FF003601810000424279
:1047800010B50446FE4884420BD0FE48844208D04F
:10479000FD48844205D0FD48844202D0FC48844252
:1047A00000D103E08521FBA0FEF7B4FBF44884426E
:1047B00009D101218803FFF710FF00214FF4804049
:1047C000FFF70BFF32E0EF48844209D10121480492
:1047D000FFF72CFF00214FF40030FFF727FF25E003
:1047E000E948844209D101218804FFF71FFF002115
:1047F0004FF48020FFF71AFF18E0E448844209D103
:104800000121C804FFF712FF00214FF40020FFF739
:104810000DFF0BE0DE48844208D101210805FFF7B7
:1048200005FF00214FF48010FFF700FF10BD2DE9B8
:10483000F04786B005460C460026B24600BFB1469A
:104840000027CF4885420BD0CE48854208D0CE48BD
:10485000854205D0CD48854202D0CD48854200D161
:1048600003E0B821CBA0FEF755FB206820B1D24968
:104870002068884200D203E0B921C6A0FEF74AFBB7
:10488000A08818B1A088B0F5805F00D103E0BA21FC
:10489000C0A0FEF73FFBE08858B1E088B0F5805F2C
:1048A00007D0E088B0F5005F03D0E088B0F5405F46
:1048B00000D103E0BB21B7A0FEF72CFB208938B163
:1048C0002089B0F5806F03D02089B0F5C06F00D18A
:1048D00003E0BC21AFA0FEF71DFB60894FF6F3712A
:1048E000084010B9608900B103E0BD21A9A0FEF71E
:1048F00011FBA08958B1A089B0F5807F07D0A089AD
:10490000B0F5007F03D0A089B0F5407F00D103E06F
:10491000BE21A0A0FEF7FEFAA08968B198488542A2
:1049200005D09848854202D09748854200D103E0DF
:10493000C22198A0FEF7EEFA2F462E8A4CF6FF70A1
:104940000640E08806432E82AE894EF6F3100640FC
:10495000A08821890843618908430643AE81AE8A55
:104960004FF6FF400640A0890643AE8201A8FFF73C
:104970004FFD8348874202D1DDF810A001E0DDF849
:104980000CA0A88900F4004040B10AEBCA0000EB7B
:104990000A1021684900B0FBF1F807E00AEBCA00F1
:1049A00000EB0A1021688900B0FBF1F86420B8FB25
:1049B000F0F006013009642101FB1089A88900F498
:1049C000004040B1322000EBC900B0FBF1F000F034
:1049D0000700064308E0322000EB09106421B0FB19
:1049E000F1F000F00F0006432E8106B0BDE8F0871D
:1049F0004FF41651016000218180C18001810C219A
:104A0000418100218181704770B505460C46002622
:104A10005B48854205D05B48854202D05A488542B2
:104A200000D104E04FF499715AA0FEF773FA208880
:104A300018B12088B0F5006F00D104E040F23311C6
:104A400054A0FEF767FA608818B16088B0F5806FEF
:104A500000D104E04FF49A714EA0FEF75BFAA088F3
:104A600018B1A088B0F5007F00D104E040F2351104
:104A700048A0FEF74FFAE08818B1E088B0F5807FD3
:104A800000D104E04FF49B7142A0FEF743FA2E8A56
:104A90004FF2FF000640208861880843A188084340
:104AA000E188084306432E8270BD002101804180C9
:104AB0008180C180704770B504460D4630488442FD
:104AC0000BD03048844208D02F48844205D02F486C
:104AD000844202D02E48844200D104E04FF4B171E8
:104AE0002CA0FEF717FA0DB1012D00D104E040F221
:104AF000631128A0FEF70EFA25B1A08940F40050FA
:104B0000A08104E0A0894DF6FF710840A08170BD2E
:104B10002DE9F04705460C4617464FF00008C246FF
:104B2000C1460026164885420BD01648854208D05B
:104B30001548854205D01548854202D01448854263
:104B400000D104E040F2891112A0FEF7E3F9282C0D
:104B500038D040F22770844234D040F2266084423C
:104B600030D040F2255084422CD040F22440844280
:104B700028D040F64600844224D040F66A101DE05A
:104B8000003801400044004000480040004C004014
:104B9000005000402E2E5C4C6962726172795C7329
:104BA00072635C73746D3332663130785F75736134
:104BB00072742E630000000021AA4400844201D0D8
:104BC000602C00D105E04FF4C571AFF23800FEF75C
:104BD000A1F90FB1012F00D105E040F28B11AFF226
:104BE0004C00FEF797F940F66A1084420FD1F9485D
:104BF000854205D0F848854202D0F848854200D168
:104C000005E040F28F11AFF27400FEF783F92E46F3
:104C1000C4F3421804F01F0A012000FA0AF9B8F19F
:104C2000010F01D10C3605E0B8F1020F01D11036A9
:104C300000E0143627B1306840EA0900306003E034
:104C4000306820EA09003060BDE8F08770B504469E
:104C50000D461646DF4884420BD0DF48844208D018
:104C6000DE48844205D0DE48844202D0DD488442DA
:104C700000D105E040F2C311AFF2E800FEF74AF9B7
:104C80004FF63F70284008B905B105E04FF4E271D6
:104C9000AFF20010FEF73EF90EB1012E00D105E093
:104CA00040F2C511AFF21410FEF734F91EB1A08A1C
:104CB0002843A08202E0A08AA843A08270BD70B5FC
:104CC00004460D46C34884420BD0C348844208D0F2
:104CD000C248844205D0C248844202D0C1488442BE
:104CE00000D105E040F2DF11AFF25810FEF712F9E3
:104CF0000F2D00DC05E04FF4F071AFF26810FEF705
:104D000009F9208A4FF6F07108402082208A284352
:104D1000208270BD70B504460D46AE4884420BD06B
:104D2000AD48844208D0AD48844205D0AC488442A6
:104D300002D0AC48844200D105E04FF4FB71AFF2E1
:104D4000AC10FEF7E7F815B1B5F5006F00D105E03E
:104D500040F2F711AFF2C410FEF7DCF8A0894FF271
:104D6000FF710840A081A0892843A08170BD70B563
:104D700004460D46974884420BD09748844208D099
:104D80009648844205D09648844202D09548844291
:104D900000D105E040F20921AFF20820FEF7BAF891
:104DA0000DB1012D00D105E040F20A21AFF21C2027
:104DB000FEF7B0F825B1A08940F00200A08104E020
:104DC000A0894FF6FD710840A08170BD70B5044602
:104DD0000D46804884420BD07F48844208D07F48EB
:104DE000844205D07E48844202D07E48844200D16D
:104DF00005E040F22621AFF26420FEF78BF80DB1FA
:104E0000202D00D105E040F22721AFF27820FEF7F7
:104E100081F8208A4FF6DF7108402082208A2843DB
:104E2000208270BD70B504460D466A4884420BD09E
:104E30006948844208D06948844205D06848844261
:104E400002D06848844200D105E040F23921AFF237
:104E5000BC20FEF75FF80DB1012D00D105E040F256
:104E60003A21AFF2D020FEF755F825B1208A40F460
:104E70008040208204E0208A4BF6FF7108402082A7
:104E800070BD70B504460D46524884420BD052485E
:104E9000844208D05148844205D05148844202D00F
:104EA0005048844200D105E040F25321AFF21C305B
:104EB000FEF730F8B5F5007F00DA05E04FF4157124
:104EC000AFF23030FEF726F8C5F30800A08070BDC1
:104ED00010B504463F4884420BD03F48844208D076
:104EE0003E48844205D03E48844202D03D48844238
:104EF00000D105E04FF41971AFF26830FEF70AF8FF
:104F0000A088C0F3080010BD10B5044631488442A3
:104F10000BD03148844208D03048844205D0304814
:104F2000844202D02F48844200D105E04FF41D7125
:104F3000AFF2A030FDF7EEFFA08940F00100A081A4
:104F400010BD70B504460D462248844205D0224863
:104F5000844202D02148844200D105E04FF42171FF
:104F6000AFF2D030FDF7D6FF208BC0B22083208B6C
:104F700040EA0520208370BD70B504460D461548F3
:104F800084420BD01448844208D01448844205D08F
:104F90001348844202D01348844200D105E04FF404
:104FA0002671AFF21040FDF7B5FF208B00F47F4073
:104FB0002083208B2843208370BD70B504460D46A6
:104FC0000448844205D00448844202D00348844205
:104FD0000AD10FE000380140004400400048004082
:104FE000004C00400050004040F2AB21AFF25C406A
:104FF000FDF790FF0DB1012D00D105E04FF42B71AD
:10500000AFF27040FDF786FF25B1A08A40F0200086
:10501000A08204E0A08A4FF6DF710840A08270BD34
:1050200070B504460D46F948844205D0F8488442DC
:1050300002D0F848844200D105E04FF43171AFF25C
:10504000AC40FDF767FF0DB1012D00D105E040F246
:10505000C521AFF2C040FDF75DFF25B1A08A40F049
:105060001000A08204E0A08A4FF6EF710840A082F1
:1050700070BD70B504460D46E44884420BD0E44848
:10508000844208D0E348844205D0E348844202D0F9
:10509000E248844200D105E040F2DE21AFF20C503C
:1050A000FDF738FF0DB1012D00D105E040F2DF2101
:1050B000AFF22050FDF72EFF25B1A08A40F0080086
:1050C000A08204E0A08A4FF6F7710840A08270BD6C
:1050D00070B504460D46CD4884420BD0CC4884427E
:1050E00008D0CC48844205D0CB48844202D0CB487B
:1050F000844200D105E040F2FD21AFF26850FDF797
:1051000009FF0DB1012D00D105E040F2FE21AFF203
:105110007C50FDF7FFFE25B1A08940F40040A0813E
:1051200003E0A089C0F30E00A08170BD70B50446F5
:105130000D46B64884420BD0B548844208D0B548E5
:10514000844205D0B448844202D0B448844200D19D
:1051500005E04FF44671AFF2C450FDF7DBFE0DB130
:10516000012D00D105E040F21931AFF2D850FDF722
:10517000D1FE25B1A08A40F40060A08204E0A08A9C
:105180004FF2FF710840A08270BD70B504460D4615
:105190009E4884420BD09E48844208D09D48844259
:1051A00005D09D48844202D09C48844200D105E04D
:1051B00040F23531AFF22460FDF7ACFE042D00D093
:1051C00005B905E040F23631AFF23860FDF7A2FED6
:1051D000A08A4FF6FB710840A082A08A2843A082D3
:1051E00070BD70B504460D46884884420BD088488F
:1051F000844208D08748844205D08748844202D040
:105200008648844200D105E04FF45271AFF27C60D1
:10521000FDF780FE0DB1012D00D105E040F24931CE
:10522000AFF29060FDF776FE25B1A08A40F0020053
:10523000A08204E0A08A4FF6FD710840A08270BDF4
:1052400070B505460C460026704885420BD0704864
:10525000854208D06F48854205D06F48854202D00C
:105260006E48854200D105E040F26E31AFF2DC605D
:10527000FDF750FE012C13D0802C11D0402C0FD004
:10528000202C0DD0102C0BD0B4F5807F08D0B4F5B5
:10529000007F05D0082C03D0042C01D0022C00D1B3
:1052A00005E040F26F31AFF21470FDF733FEB4F554
:1052B000007F0FD15548854205D05548854202D020
:1052C0005448854200D105E040F27331AFF23C70A2
:1052D000FDF720FE2888204008B1012600E00026C6
:1052E000304670BD70B504460D46484884420BD028
:1052F0004748844208D04748844205D04648844203
:1053000002D04648844200D105E040F29E31AFF21F
:105310007C70FDF7FFFD4FF69F40284008B905B1AE
:1053200005E040F29F31AFF29470FDF7F3FD05F414
:105330000070B0F5007F0FD13448844205D0344866
:10534000844202D03348844200D105E040F2A331C8
:10535000AFF2C070FDF7DEFDE843208070BD2DE99F
:10536000F04705460C4600270026B046B1462748C0
:1053700085420BD02648854208D02648854205D074
:105380002548854202D02548854200D105E040F2FB
:10539000C131AFF60000FDF7BDFD282C20D040F252
:1053A000277084421CD040F22660844218D040F21C
:1053B0002550844214D040F22440844210D040F65C
:1053C000460084420CD040F66A10844208D0B4F5FE
:1053D000587F05D0B4F5187F02D0B4F5B07F00D166
:1053E00005E040F2C231AFF65400FDF793FD40F600
:1053F0006A1084421AD10548854205D00448854286
:1054000002D0044885420BD110E000000038014072
:105410000044004000480040004C00400050004064
:1054200040F2C631AFF69400FDF774FDC4F34218A4
:1054300004F01F06012000FA06F6B8F1010F02D1B0
:10544000A889064007E0B8F1020F02D1288A064079
:1054500001E0A88A06402712012000FA07F72888F1
:1054600007401EB117B14FF0010901E04FF00009EC
:105470004846BDE8F0872DE9F04104460D46002678
:105480000027244884420BD02348844208D0234874
:10549000844205D02248844202D02248844200D16E
:1054A00005E040F20A41AFF61410FDF733FD40F27B
:1054B000266085420BD040F22550854207D040F649
:1054C0004600854203D040F66A10854200D105E0CF
:1054D00040F20B41AFF64410FDF71CFD40F66A1098
:1054E00085420FD10B48844205D00B48844202D03C
:1054F0000A48844200D105E040F20F41AFF66C103B
:10550000FDF708FD2E120120B04087B2F84320803D
:10551000BDE8F081003801400044004000480040F0
:10552000004C00400050004010B50446B4F5E06F58
:105530000BD0B4F5C06F08D0B4F5A06F05D0B4F5AA
:10554000806F02D0B4F5407F00D103E063215DA0FD
:10555000FDF7E0FC614820436149086010BD2DE97A
:10556000F0410446002500270F26E07810B1E078CE
:10557000012800D103E0752152A0FDF7CBFC607833
:10558000102800DA03E076214EA0FDF7C3FCA078D6
:10559000102800DA03E077214AA0FDF7BBFCE07891
:1055A00000B34F48006800F4E060C0F5E060050A11
:1055B000C5F10407EE40607800FA07F5A0783040A6
:1055C00005432D01474822788554207800F01F01BB
:1055D0000120884021784911890001F1E021C1F8BA
:1055E000000109E0207800F01F01012088403E49B9
:1055F0002278521141F82200BDE8F08170B50446CE
:105600000D46B4F1005F02D0B4F1006F00D103E0A9
:105610009F212CA0FDF77EFC3448854200D203E098
:10562000A02128A0FDF776FC314905EA01002043BE
:105630002B49091F086070BD70B504460D46102C3B
:1056400003D0042C01D0022C00D103E0B2211DA014
:10565000FDF760FC0DB1012D00D103E0B32119A0CD
:10566000FDF758FC3DB11E48001D006820431C4951
:10567000091D086006E01A48001D0068A04318498B
:10568000091D086070BD10B50446042C01D0601DD2
:1056900000B903E0CA210BA0FDF73CFC042C08D1A3
:1056A0004FF0E020006940F004004FF0E021086175
:1056B00007E04FF0E020006920F004004FF0E02107
:1056C000086110BD2E2E5C4C6962726172795C7348
:1056D00072635C6D6973632E630000000000FA055D
:1056E0000CED00E000E400E080E100E0FFFF0F00CF
:1056F00080FFFF1F10B50446F84884422FD0B4F154
:10570000804F2CD0F648844229D0F648844226D0D7
:10571000F548844223D0F548844220D0F44884429E
:105720001DD0F44884421AD0F348844217D0F3487D
:10573000844214D0F248844211D0F24884420ED000
:10574000F14884420BD0F148844208D0F0488442AA
:1057500005D0F048844202D0EF48844200D103E0F3
:105760007D21EEA0FDF7D6FBDC48844208D1012163
:10577000C014FEF732FF0021E014FEF72EFFC4E054
:10578000B4F1804F08D101210846FEF74FFF0021F8
:105790000120FEF74BFFB8E0D148844208D1012137
:1057A0000220FEF743FF00210220FEF73FFFACE09E
:1057B000CC48844208D101210420FEF737FF0021A4
:1057C0000420FEF733FFA0E0C748844208D101213E
:1057D0000820FEF72BFF00210820FEF727FF94E0AA
:1057E000C248844208D101211020FEF71FFF00218A
:1057F0001020FEF71BFF88E0BD48844208D101213C
:105800002020FEF713FF00212020FEF70FFF7CE091
:10581000B848844208D101214014FEF7DEFE002181
:105820006014FEF7DAFE70E0B348844209D101212A
:10583000C804FEF7D2FE00214FF40020FEF7CDFE93
:1058400063E0AE48844209D101210805FEF7C5FE98
:1058500000214FF48010FEF7C0FE56E0A8488442B5
:1058600009D101214805FEF7B8FE00214FF40010D0
:10587000FEF7B3FE49E0A348844208D1012140204D
:10588000FEF7D4FE00214020FEF7D0FE3DE09E480A
:10589000844208D101218020FEF7C8FE002180202B
:1058A000FEF7C4FE31E09948844208D101218015F9
:1058B000FEF7BCFE0021A015FEF7B8FE25E09448D7
:1058C000844209D101210804FEF787FE00214FF42C
:1058D0008030FEF782FE18E08E48844209D1012113
:1058E0004804FEF77AFE00214FF40030FEF775FE03
:1058F0000BE08948844208D101218804FEF76DFE3F
:1059000000214FF48020FEF768FE10BD70B50446FC
:105910000D460026714884422FD0B4F1804F2CD020
:105920006F48844229D06F48844226D06E48844212
:1059300023D06E48844220D06D4884421DD06D48EB
:1059400084421AD06C48844217D06C48844214D0E8
:105950006B48844211D06B4884420ED06A4884421E
:105960000BD06A48844208D06948844205D069480F
:10597000844202D06848844200D103E0E72167A056
:10598000FDF7C8FA688858B16888102808D0688878
:10599000202805D06888402802D06888602800D177
:1059A00003E0E8215DA0FDF7B5FAE88838B1E888A2
:1059B000B0F5807F03D0E888B0F5007F00D103E028
:1059C000E92156A0FDF7A6FA2688444884420ED065
:1059D000484884420BD0B4F1804F08D040488442FC
:1059E00005D04048844202D03F48844204D14FF65B
:1059F0008F700640688806433C48844207D03C4884
:105A0000844204D04FF6FF400640E88806432680D3
:105A1000A888A08528882085304884420BD0354846
:105A2000844208D03A48844205D03A48844202D0A1
:105A30003948844201D1287A20860120A08270BD95
:105A40002DE9F04104460D464FF0000800260027DE
:105A50002248844229D0B4F1804F26D02048844285
:105A600023D02048844220D01F4884421DD02148A2
:105A700084421AD02048844217D02048844214D04F
:105A80001F48844211D01F4884420ED01E488442D1
:105A90000BD01E48844208D01D48844205D01D48C2
:105AA000844202D01C48844200D104E04FF48E713D
:105AB0001AA0FDF72FFA288870B1288810280BD07B
:105AC0002888202808D02888302805D028886028F1
:105AD00002D02888702831D136E00000002C014027
:105AE0000004004000080040000C0040001000408E
:105AF0000014004000340140004C014000500140BF
:105B00000054014000180040001C004000200040EC
:105B10000040014000440140004801402E2E5C4CF2
:105B20006962726172795C7372635C73746D333233
:105B3000663130785F74696D2E63000040F21D118C
:105B4000AFF22800FDF7E6F9688810B168880128EF
:105B500000D105E04FF48F71AFF24000FDF7DAF9A4
:105B6000288910B12889022800D105E040F21F11D0
:105B7000AFF25800FDF7CEF9208C4FF6FE710840C9
:105B80002084268CA788B4F818804FF68F7008EA16
:105B90000008881E08EA0008288840EA0808481E0D
:105BA00006402889064368880643FE4884420BD095
:105BB000FD48844208D0FD48844205D0FC48844218
:105BC00002D0FC48844245D1A88810B1A888042896
:105BD00000D105E04FF49E71AFF2C000FDF79AF9D5
:105BE000688910B16889082800D105E040F23D11AC
:105BF000AFF2D800FDF78EF9E889B0F5007F01D04B
:105C0000E88900B905E04FF49F71AFF2F000FDF7AD
:105C100081F9A889B0F5807F01D0A88900B905E095
:105C200040F23F11AFF20C10FDF774F94FF6F77028
:105C30000640688906434FF6FB700640A888064375
:105C40004FF6FF6007404FF6FF500740A889074313
:105C5000E8890743A780A4F81880E888A0862684EE
:105C6000BDE8F0812DE9F04105460C464FF00008F3
:105C700000260027CB48854217D0B5F1804F14D0BD
:105C8000CD48854211D0CD4885420ED0CC488542C2
:105C90000BD0C548854208D0CA48854205D0CA48BD
:105CA000854202D0C148854200D105E040F26F1123
:105CB000AFF29810FDF72EF9208870B120881028D7
:105CC0000BD02088202808D02088302805D02088B4
:105CD000602802D02088702800D105E04FF4B87108
:105CE000AFF2C810FDF716F9608810B1608801287E
:105CF00000D105E040F27111AFF2E010FDF70AF9B2
:105D0000208910B12089022800D105E04FF4B97133
:105D1000AFF2F810FDF7FEF8288C4FF6EF7108404F
:105D200028842E8CAF88B5F8188048F6FF7008EAF2
:105D300000084FF6FF4008EA000820884FF6FF7180
:105D400001EA002040EA08084FF6DF70064020898B
:105D500001EA00100643608801EA001006439148FA
:105D6000854202D0904885424FD1A08810B1A088CA
:105D7000042800D105E040F28F11AFF26020FDF75A
:105D8000C9F8608910B16089082800D105E04FF496
:105D9000C871AFF27820FDF7BDF8E089B0F5007F5B
:105DA00001D0E08900B905E040F29111AFF29420F2
:105DB000FDF7B0F8A089B0F5807F01D0A08900B9C7
:105DC00005E04FF4C971AFF2AC20FDF7A3F84FF630
:105DD0007F70064060894FF6FF7101EA00100643AC
:105DE0004FF6BF700640A08801EA001006434FF648
:105DF000FF3007404FF2FF700740A08901EA8000A2
:105E00000743E08901EA80000743AF80A5F81880C6
:105E1000E08828872E84BDE8F0812DE9F041054611
:105E20000C464FF00008002600275E4885420ED041
:105E3000B5F1804F0BD06048854208D05F4885425D
:105E400005D05F48854202D05748854200D105E021
:105E500040F2C111AFF23C30FDF75CF8208870B120
:105E6000208810280BD02088202808D020883028AF
:105E700005D02088602802D02088702800D105E055
:105E80004FF4E171AFF26C30FDF744F8608810B167
:105E90006088012800D105E040F2C311AFF28430E0
:105EA000FDF738F8208910B12089022800D105E0DB
:105EB0004FF4E271AFF29C30FDF72CF8288C4FF6CE
:105EC000FF61084028842E8CAF88B5F81C804FF6FF
:105ED0008F7008EA00084FF6FC7008EA0008208876
:105EE00040EA08084FF6FF50064020894FF6FF7140
:105EF00001EA00200643608801EA002006432948A1
:105F0000854202D02848854264D1A08810B1A0887B
:105F1000042800D105E04FF4F071AFF20040FCF727
:105F2000F9FF608910B16089082800D105E040F2CE
:105F3000E111AFF21840FCF7EDFFE089B0F5007F0A
:105F400001D0E08900B905E04FF4F171AFF23440BF
:105F5000FCF7E0FFA089B0F5807F01D0A08900B9EF
:105F600005E040F2E311AFF24C40FCF7D3FF4FF2F3
:105F7000FF70064060894FF6FF7101EA002006437A
:105F80004FF6FF300640A08801EA002006434EF697
:105F9000FF7007404DF6FF700740A08901EA00102E
:105FA000074313E0002C0140003401400040014051
:105FB0000044014000480140000400400008004047
:105FC000000C0040004C014000180040E08901EA4C
:105FD00000100743AF80A5F81C80E088A8872E84B6
:105FE000BDE8F0812DE9F04104460D46002700266A
:105FF000B046F84884420ED0B4F1804F0BD0F6483A
:10600000844208D0F548844205D0F548844202D045
:10601000F448844200D105E04FF40471AFF204501B
:10602000FCF778FF288870B1288810280BD02888C2
:10603000202808D02888302805D02888602802D059
:106040002888702800D105E040F21121AFF23450C9
:10605000FCF760FF688810B16888012800D105E06E
:1060600040F21221AFF24C50FCF754FF288910B1D6
:106070002889022800D105E040F21321AFF26450D4
:10608000FCF748FF208C4EF6FF7108402084268CD8
:10609000B4F80480A78B48F6FF7007404FF6FF4026
:1060A000074028884FF6FF7101EA002007434DF6AC
:1060B000FF700640288901EA00300643688801EA3B
:1060C00000300643C348844202D0C648844217D1F8
:1060D000A889B0F5807F01D0A88900B905E04FF408
:1060E0000C71AFF2C850FCF715FF4BF6FF7008EAD1
:1060F0000008A8894FF6FF7101EA801040EA0808FD
:10610000A4F80480A783E888A4F840002684BDE8AA
:10611000F08170B504460D46AE4884420ED0B4F10D
:10612000804F0BD0AC48844208D0AC48844205D0A4
:10613000AB48844202D0AB48844200D105E040F62F
:106140007611AFF22860FCF7E5FE2DB1042D03D0E7
:10615000082D01D00C2D00D105E040F67711AFF2EB
:106160004460FCF7D7FEA08B4FF2FF310840A083BC
:10617000A08B4FF6FF7101EA05210843A08370BD93
:10618000F0B50C461546002200210026078C4EF67D
:10619000FF7C07EA0C070784828B018C4FF6FF77A0
:1061A00007EA043640F6FF473A404FF6FF7707EA22
:1061B00005273A434FF6FF7707EA03373A43854FFF
:1061C000B8420ED0874FB8420BD0B0F1804F08D004
:1061D000814FB84205D0814FB84202D0804FB842BB
:1061E00006D14DF6FF77394046F48057394305E034
:1061F00047F6FF57394044F480573943828301847E
:10620000F0BD70B504460D46724884420ED0B4F11C
:10621000804F0BD07048844208D07048844205D02B
:106220006F48844202D06F48844200D105E04FF4A9
:106230001661AFF21870FCF76DFE2DB1042D03D07E
:10624000082D01D00C2D00D105E040F66111AFF210
:106250003470FCF75FFEA08B4FF6F3710840A0830B
:10626000A08B2843A08370BDF0B50C4615460022D4
:1062700000210026078C4FF6FF6C07EA0C07078405
:10628000828B018C4FF6FF7707EA04264FF60C77D6
:106290003A404FF6FF7707EA03172F433A434D4F33
:1062A000B8420ED04F4FB8420BD0B0F1804F08D05B
:1062B000494FB84205D0494FB84202D0484FB84282
:1062C00006D14FF6FF57394046F48077394305E051
:1062D0004FF2FF57394044F4807739438283018479
:1062E000F0BD70B504460D463A48844217D0B4F16B
:1062F000804F14D03848844211D0384884420ED0A0
:10630000374884420BD03748844208D0364884420C
:1063100005D03648844202D03548844200D105E099
:1063200040F64A11AFF60C00FCF7F4FD2DB1042D38
:1063300003D0082D01D00C2D00D105E040F64B1103
:10634000AFF62800FCF7E6FD208B4FF2FF31084046
:106350002083208B4FF6FF7101EA0521084320833B
:1063600070BDF0B50C461546002200210026078CB2
:106370004FF6EF7C07EA0C070784028B018C4FF67F
:10638000FF7707EA041640F6FF473A404FF6FF77DB
:1063900007EA03373A434FF6FF7707EA05273A4300
:1063A0000C4FB8420ED00F4FB8420BD0B0F1804F17
:1063B00008D0094FB84205D0084FB84202D0084F64
:1063C000B84217D14FF6DF77394046F0100739430E
:1063D00016E00000002C01400004004000080040CE
:1063E000000C004000340140004C01400018004007
:1063F000004001404FF65F77394044F010073943C1
:1064000002830184F0BD70B504460D46FB4884420A
:1064100029D0B4F1804F26D0F948844223D0F948DE
:10642000844220D0F84884421DD0F84884421AD0D3
:10643000F748844217D0F748844214D0F648844283
:1064400011D0F64884420ED0F54884420BD0F5486E
:10645000844208D0F448844205D0F448844202D0F3
:10646000F348844200D105E040F63411AFF65410F1
:10647000FCF750FD2DB1042D03D0082D01D00C2DBB
:1064800000D105E040F63511AFF67010FCF742FD83
:10649000208B4FF6F37108402083208B2843208304
:1064A00070BDF0B50C46154600220021068C4FF653
:1064B000FE773E400684028B018C4FF60C7632400C
:1064C0007E1C06EA03162E433243CC4EB0420ED059
:1064D000CE4EB0420BD0B0F1804F08D0C84EB04283
:1064E00005D0C84EB04202D0C74EB04206D14FF6DA
:1064F000FD76314044F00106314305E04FF6F57674
:10650000314044F00106314302830184F0BD70B58F
:1065100004460D46288840B12888042805D02888DC
:10652000082802D028880C2800D105E040F24E212E
:10653000AFF61820FCF7EEFCA888012805D0A88843
:10654000022802D0A888032800D105E040F24F219C
:10655000AFF63820FCF7DEFCE88840B1E888042874
:1065600005D0E888082802D0E8880C2800D105E08A
:106570004FF41471AFF65C20FCF7CCFC28890F288F
:1065800000DC05E040F25121AFF67020FCF7C2FCC0
:106590009A4884420ED09D4884420BD0B4F1804F7B
:1065A00008D09748844205D09648844202D0964845
:1065B00084420CD1688810B16888022800D115E0A7
:1065C00040F25621AFF6AC20FCF7A4FC0EE0688840
:1065D00028B16888022802D068880A2800D105E01E
:1065E00040F25A21AFF6CC20FCF794FC2888E0BB9F
:1065F0008248844229D0B4F1804F26D0804884421A
:1066000023D08048844220D07F4884421DD07F48D8
:1066100084421AD07E48844217D07E48844214D0E7
:106620007D48844211D07D4884420ED07C4884420B
:106630000BD07C48844208D07B48844205D07B48FC
:10664000844202D07A48844200D105E040F25E21C3
:10665000AFF63830FCF75EFC2B89AA8869882046A3
:10666000FFF71FFFE988204600E002E0FFF7CBFEBE
:1066700079E0288804282CD16048844217D0B4F1EE
:10668000804F14D05E48844211D05E4884420ED0C0
:106690005D4884420BD05D48844208D05C48844207
:1066A00005D05E48844202D05F48844200D105E0B4
:1066B0004FF41A71AFF69C30FCF72CFC2B89AA889A
:1066C00069882046FFF74DFEE9882046FFF709FE5E
:1066D00049E02888082823D1484884420ED0B4F1E4
:1066E000804F0BD04648844208D04648844205D0AB
:1066F0004548844202D04548844200D105E040F23A
:106700007221AFF6E830FCF705FC2B89AA8869886E
:106710002046FFF7A9FDE9882046FFF772FD22E039
:10672000364884420ED0B4F1804F0BD034488442B6
:1067300008D03448844205D03348844202D03348DC
:10674000844200D105E04FF41F71AFF63040FCF7F2
:10675000E1FB2B89AA8869882046FFF711FDE988AB
:106760002046FFF7D6FC70BD2DE9F04105460C46EA
:10677000002601272148854217D0B5F1804F14D05B
:106780001F48854211D01F4885420ED01E488542C1
:106790000BD01E48854208D01D48854205D01F48B1
:1067A000854202D02048854200D105E040F2932185
:1067B000AFF69840FCF7AEFB608808B9022600E00F
:1067C0000026A088012801D1022700E001272088A7
:1067D00080BB2389A28861882846FFF762FEE18892
:1067E0002846FFF710FE23893A4631462846FFF730
:1067F000B8FDE1882846FFF774FD30E0002C014029
:106800000004004000080040000C0040003401403B
:10681000004C01400050014000540140001800406D
:10682000001C0040002000400040014000440140A6
:1068300000480140FFE72389A28861882846FFF7C6
:1068400090FDE1882846FFF74CFD23893A46314602
:106850002846FFF726FEE1882846FFF7D4FDBDE86D
:10686000F08170B505460C46FE4885420BD0FE48C7
:10687000854208D0FD48854205D0FD48854202D0BA
:10688000FC48854200D105E040F2CB21AFF67450C0
:10689000FCF740FB2088B0F5006F01D0208800B9DC
:1068A00005E04FF43371AFF68C50FCF733FB608892
:1068B000B0F5806F01D0608800B905E040F2CD21CD
:1068C000AFF6A850FCF726FBA08858B1A088B0F519
:1068D000807F07D0A088B0F5007F03D0A088B0F5F6
:1068E000407F00D105E040F2CE21AFF6D050FCF75A
:1068F00011FB2089B0F5805F01D0208900B905E047
:1069000040F2CF21AFF6EC50FCF704FB608918B1E0
:106910006089B0F5005F00D105E04FF43471AFF647
:106920000460FCF7F7FAA089B0F5804F01D0A08988
:1069300000B905E040F2D121AFF62060FCF7EAFA99
:10694000208861880843A1880843E1880843218999
:10695000084361890843A1890843A5F8440070BD34
:106960004FF6FF71818000210180C180418001725A
:1069700070470021018041808180C1800181418177
:106980008181C18170470021018041800121818086
:106990000021C180018170470021018041808180F8
:1069A000C180018141818181704770B504460D46E7
:1069B000AC4884422FD0B4F1804F2CD0AE488442F2
:1069C00029D0AE48844226D0AD48844223D0AD4879
:1069D000844220D0AC4884421DD0A34884421AD0BF
:1069E000AA48844217D0AA48844214D0A9488442B5
:1069F00011D0A94884420ED0A84884420BD0A848A0
:106A0000844208D09948844205D09948844202D0F3
:106A10009848844200D105E040F22931AFF6047075
:106A2000FCF778FA0DB1012D00D105E040F22A31D2
:106A3000AFF61870FCF76EFA25B1208840F001001F
:106A4000208004E020884FF6FE710840208070BD51
:106A500070B504460D46834884420BD08248844278
:106A600008D08248844205D08148844202D08148BF
:106A7000844200D105E040F24231AFF66070FCF78D
:106A800049FA0DB1012D00D105E040F24331AFF6D6
:106A90007470FCF73FFA35B1B4F8440040F400409C
:106AA000A4F8440005E0B4F84400C0F30E00A4F8D4
:106AB000440070BD70B504460D46164669488442D0
:106AC0002FD0B4F1804F2CD06B48844229D06B4832
:106AD000844226D06A48844223D06A48844220D027
:106AE000694884421DD0604884421AD06748844275
:106AF00017D06748844214D06648844211D0664853
:106B000084420ED0654884420BD06548844208D048
:106B10005648844205D05648844202D055488442A3
:106B200000D104E040F26B315E48FCF7F3F905F464
:106B30007F4008B905B104E04FF45B715948FCF798
:106B4000E9F90EB1012E00D104E040F26D31554853
:106B5000FCF7E0F91EB1A0892843A08102E0A089DA
:106B6000A843A08170BD70B504460D463D488442DF
:106B70002FD0B4F1804F2CD03F48844229D03F48D9
:106B8000844226D03E48844223D03E48844220D0CE
:106B90003D4884421DD0344884421AD03B48844248
:106BA00017D03B48844214D03A48844211D03A4826
:106BB00084420ED0394884420BD03948844208D0F0
:106BC0002A48844205D02A48844202D02948844277
:106BD00000D104E04FF464713248FCF79BF905F4EE
:106BE0007F4008B905B104E040F291312D48FCF72F
:106BF00091F9A58270BD70B506460C461546194838
:106C0000864217D0B6F1804F14D01B48864211D06F
:106C10001A4886420ED01A4886420BD01248864245
:106C200008D01248864205D01148864202D0114849
:106C3000864200D104E04FF46B711A48FCF76AF900
:106C400094B3012C45D0022C43D0032C41D0042C0A
:106C50003FD0052C3DD0062C3BD0072C39D0082C3A
:106C600037D022E0002C01400034014000400140B8
:106C7000004401400048014000040040000800407A
:106C8000000C00400010004000140040004C014087
:106C9000005001400054014000180040001C00401A
:106CA000002000401C5B000813E0092C11D00A2CC6
:106CB0000FD00B2C0DD00C2C0BD00D2C09D00E2C82
:106CC00007D00F2C05D0102C03D0112C01D0122C82
:106CD00000D104E040F2AD31FB48FCF71BF995B35D
:106CE000B5F5807F2FD0B5F5007F2CD0B5F5407F6E
:106CF00029D0B5F5806F26D0B5F5A06F23D0B5F5B6
:106D0000C06F20D0B5F5E06F1DD0B5F5006F1AD07B
:106D1000B5F5106F17D0B5F5206F14D0B5F5306FFD
:106D200011D0B5F5406F0ED0B5F5506F0BD0B5F55D
:106D3000606F08D0B5F5706F05D0B5F5805F02D0F3
:106D4000B5F5885F00D104E040F2AE31DE48FCF7D3
:106D5000E1F844EA0500A6F8480070BD70B50446A5
:106D60000D461646D94884421DD0B4F1804F1AD042
:106D7000D748844217D0D748844214D0D64884429A
:106D800011D0D64884420ED0D54884420BD0D54885
:106D9000844208D0D448844205D0D448844202D0EA
:106DA000D348844200D104E040F2C731C648FCF722
:106DB000B1F848F2FF00284008B905B104E04FF4EB
:106DC0007271C148FCF7A6F80EB1012E00D104E0A3
:106DD00040F2C931BC48FCF79DF81EB1A089284398
:106DE000A08102E0A089A843A08170BD10B504462F
:106DF000B648844217D0B4F1804F14D0B4488442CE
:106E000011D0B44884420ED0B34884420BD0B54868
:106E1000844208D0B748844205D0B748844202D0A3
:106E2000B148844200D104E04FF47871A648FCF7E1
:106E300071F820894FF6F8710840208110BD70B5B7
:106E400004460D460026A148844217D0B4F1804F75
:106E500014D09F48844211D09E4884420ED09E4850
:106E600084420BD09F48844208D0A248844205D077
:106E7000A148844202D09C48844200D104E040F200
:106E8000D1419148FCF746F86DB1102D0BD0202D63
:106E900009D0302D07D0402D05D0502D03D0602DC6
:106EA00001D0702D00D104E040F2D2418648FCF7B9
:106EB00031F826894FF68F7006402E43268170BD2B
:106EC00070B504460D468148844217D0B4F1804F16
:106ED00014D07F48844211D07E4884420ED07E4830
:106EE00084420BD07F48844208D08248844205D037
:106EF0008148844202D07C48844200D104E040F2C0
:106F0000F3317148FCF706F82DB1102D03D0202D78
:106F100001D0302D00D104E04FF47D716A48FBF7B9
:106F2000F9FF29462046FFF78AFF208940F0070035
:106F3000208170BD2DE9F04104460D4616461F46DE
:106F40006248844217D0B4F1804F14D06048844224
:106F500011D0604884420ED05F4884420BD0614813
:106F6000844208D06348844205D06348844202D0FA
:106F70005D48844200D104E040F20F415248FBF7E3
:106F8000C9FF502D03D0602D01D0402D00D104E069
:106F90004FF482614C48FBF7BDFF0EB1022E00D1C9
:106FA00004E040F211414848FBF7B4FF0F2F00DC2A
:106FB00004E040F212414448FBF7ACFF602D06D1DB
:106FC0003B46012231462046FFF7CBF905E03B4620
:106FD000012231462046FFF764FA29462046FFF792
:106FE0002EFF208940F007002081BDE8F0812DE9C7
:106FF000F04104460D4616461F464FF00008334840
:1070000084420ED0B4F1804F0BD03148844208D076
:107010003048844205D03048844202D0314884420E
:1070200000D104E040F281412748FBF773FF45B1EE
:10703000B5F5805F05D0B5F5005F02D0B5F5405FCE
:1070400000D104E040F282411F48FBF763FFB6F530
:10705000004F00D006B904E040F283411A48FBF724
:1070600059FF0F2F00DC04E040F284411648FBF783
:1070700051FFB4F8088008F0FF084FF6FF7000EAEF
:1070800007203043284340EA0808A4F80880BDE8F8
:10709000F0812DE9F04104460D461746984600263A
:1070A0000A4884420ED0B4F1804F0BD00848844285
:1070B00008D00848844205D00748844202D00948D5
:1070C00084421BD11FE000001C5B0008002C014023
:1070D0000004004000080040000C00400010004088
:1070E00000140040003401400040014000440140D1
:1070F00000480140004C0140001800404FF48761F7
:10710000FE48FBF707FF45B1B5F5805F05D0B5F543
:10711000005F02D0B5F5405F00D104E040F2394194
:10712000F648FBF7F7FEB7F5004F00D007B904E0CB
:1071300040F23A41F148FBF7EDFEB8F10F0F00DCE9
:1071400004E040F23B41ED48FBF7E4FE43463A469B
:1071500029462046FFF74BFF26894FF6F870064078
:1071600046F007064FF68F70064046F070062681FF
:10717000BDE8F0812DE9F04104460D4616461F4654
:10718000DF4884420ED0B4F1804F0BD0DD488442FA
:1071900008D0DD48844205D0DC48844202D0DC4877
:1071A000844200D104E040F26141D448FBF7B2FED2
:1071B00045B1B5F5805F05D0B5F5005F02D0B5F5F6
:1071C000405F00D104E040F26241CC48FBF7A2FEF0
:1071D000B6F5004F00D006B904E040F26341C7485D
:1071E000FBF798FE0F2F00DC04E040F26441C34837
:1071F000FBF790FE3B46324629462046FFF7F7FE56
:10720000208940F480402081BDE8F08170B50446BB
:107210000E461546BA4884422FD0B4F1804F2CD088
:10722000B848844229D0B848844226D0B74884421E
:1072300023D0B848844220D0B74884421DD0B448F7
:1072400084421AD0B548844217D0B548844214D03D
:10725000B448844211D0B44884420ED0B34884422A
:107260000BD0B348844208D0B248844205D0B2481B
:10727000844202D0B148844200D104E040F29B41F4
:107280009E48FBF747FE0DB1012D00D104E040F20E
:107290009C419A48FBF73EFE2685A58270BD70B5DD
:1072A00004460D460026964884420ED0B4F1804F25
:1072B0000BD09448844208D09348844205D0934828
:1072C000844202D09248844200D104E040F2B341AB
:1072D0008A48FBF71FFE3DB1102D05D0202D03D0AD
:1072E000402D01D0602D00D104E040F2B44183482C
:1072F000FBF710FE26884FF68F7006402E4326803F
:1073000070BD2DE9F04704460D4616461F464FF066
:107310000008C146C2467A48844211D0B4F1804F79
:107320000ED0784884420BD07748844208D0774802
:10733000844205D07648844202D07E48844200D1FF
:1073400004E04FF49F616D48FBF7E4FD012D03D08D
:10735000022D01D0032D00D104E040F2F94167482D
:10736000FBF7D8FD0EB1022E00D104E040F2FA4145
:107370006248FBF7CFFD0FB1022F00D104E040F2CD
:10738000FB415E48FBF7C6FDB4F80880B4F81890DE
:10739000B4F820A04FF6F87008EA000848EA05089B
:1073A0004FF6FC4009EA000940F2011049EA0009E1
:1073B0004FF6DD700AEA000A4FF6FF7000EA071088
:1073C000304340EA0A0AA4F80880A4F81890A4F808
:1073D00020A0BDE8F08770B504460D460026484859
:1073E000844229D0B4F1804F26D04648844223D02D
:1073F0004548844220D0454884421DD044488442B8
:107400001AD04648844217D04548844214D0454893
:10741000844211D0444884420ED0444884420BD068
:107420004348844208D04348844205D042488442BD
:1074300002D04248844200D104E040F227512F4854
:10744000FBF768FD502D01D0402D00D104E04FF432
:10745000A5612A48FBF75EFD268B4FF68F7006402C
:107460002E43268370BD70B504460D460026244881
:10747000844217D0B4F1804F14D02248844211D0F6
:10748000214884420ED0214884420BD020488442B7
:1074900008D02248844205D02348844202D025489F
:1074A000844200D104E040F23F511448FBF732FD22
:1074B000502D01D0402D00D104E04FF4A8610F48B9
:1074C000FBF728FD268B48F6FF7006404FF6FF704D
:1074D00000EA05200643268370BD70B504460D46BC
:1074E00000260748844231D0B4F1804F2ED00548A1
:1074F00084422BD00448844228D021E01C5B000841
:10750000002C01400004004000080040000C004036
:10751000003401400010004000140040004C0140C5
:10752000005001400054014000180040001C004081
:10753000002000400040014000440140004801405C
:10754000FD48844202D0FD48844200D104E040F26C
:107550005751FB48FBF7DEFC502D01D0402D00D1E8
:1075600004E04FF4AB61F648FBF7D4FCA68B4FF672
:107570008F7006402E43A68370BD70B504460D463D
:107580000026F04884420ED0B4F1804F0BD0EE4874
:10759000844208D0ED48844205D0E748844202D0B6
:1075A000E648844200D104E040F26F51E448FBF722
:1075B000B1FC502D01D0402D00D104E04FF4AE615C
:1075C000DF48FBF7A7FCA68B48F6FF7006404FF696
:1075D000FF7000EA05200643A68370BD70B504461F
:1075E0000D46D84884422FD0B4F1804F2CD0D648D5
:1075F000844229D0D548844226D0CF48844223D023
:10760000D348844220D0D34884421DD0CB48844202
:107610001AD0D148844217D0D048844214D0D048E0
:10762000844211D0CF4884420ED0CF4884420BD040
:10763000CE48844208D0CE48844205D0CD4884420A
:1076400002D0CD48844200D104E040F28451BC48CD
:10765000FBF760FC0DB1012D00D104E040F2855133
:10766000B748FBF757FC25B1208840F08000208008
:1076700004E020884FF67F710840208070BD70B50F
:1076800004460D46AF4884420BD0AC48844208D033
:10769000B748844205D0B748844202D0B6488442F5
:1076A00000D104E040F29C51A548FBF733FC0DB13A
:1076B000012D00D104E040F29D51A148FBF72AFCC6
:1076C00025B1A08840F00400A08004E0A0884FF617
:1076D000FB710840A08070BD70B504460D46994806
:1076E000844217D0B4F1804F14D09748844211D00F
:1076F000964884420ED0904884420BD08F488442F2
:1077000008D09B48844205D09A48844202D09A48C7
:10771000844200D104E040F2B5518948FBF7FAFBFE
:107720000DB1012D00D104E040F2B6518448FBF7C1
:10773000F1FB25B1A08840F00800A08004E0A088FB
:107740004FF6F7710840A08070BD70B504460D4635
:107750007C48844211D0B4F1804F0ED07A488442E4
:107760000BD07A48844208D07348844205D07348CD
:10777000844202D07E48844200D104E040F2CE51DF
:107780006F48FBF7C7FB0DB1012D00D104E040F2BB
:10779000CF516B48FBF7BEFB25B1A08840F001003C
:1077A000A08004E0A0884FF6FE710840A08070BD64
:1077B00070B504460D4600266248844229D0B4F1D3
:1077C000804F26D06048844223D06048844220D035
:1077D000594884421DD0594884421AD05E48844298
:1077E00017D05E48844214D05D48844211D05D4871
:1077F00084420ED05C4884420BD05C48844208D05E
:107800005B48844205D05B48844202D05A48844297
:1078100000D104E040F2E9514948FBF77BFB082D19
:1078200000D005B904E040F2EA514548FBF772FB8D
:10783000268B4FF6F77006402E43268370BD70B539
:1078400004460D4600263F48844217D0B4F1804FCD
:1078500014D03D48844211D03C4884420ED0364872
:1078600084420BD03548844208D03B48844205D03E
:107870003C48844202D03E48844200D104E040F2B9
:1078800002612F48FBF746FB082D00D005B904E044
:1078900040F203612A48FBF73DFB268B4FF2FF7055
:1078A00006404FF6FF7000EA05200643268370BDB0
:1078B00070B504460D460026224884420ED0B4F12D
:1078C000804F0BD02048844208D02048844205D005
:1078D0001948844202D01948844200D104E040F2A1
:1078E0001A611748FBF716FB082D00D005B904E014
:1078F00040F21B611248FBF70DFBA68B4FF6F770A9
:1079000006402E43A68370BD70B504460D46002682
:107910000C4884420ED0B4F1804F0BD00A48844208
:1079200008D00A48844205D00348844202D0034864
:10793000844223D127E00000000C004000340140C5
:107940001C5B0008002C01400004004000080040BF
:107950000010004000140040004C01400050014065
:107960000054014000180040001C0040002000406E
:1079700000400140004401400048014040F23261B3
:10798000F748FBF7C7FA082D00D005B904E040F22C
:107990003361F348FBF7BEFAA68B4FF2FF70064047
:1079A0004FF6FF7000EA05200643A68370BD70B550
:1079B00004460D460026EB48844229D0B4F1804F9E
:1079C00026D0E948844223D0E848844220D0E848C1
:1079D00084421DD0E74884421AD0E748844217D039
:1079E000E648844214D0E648844211D0E5488442F7
:1079F0000ED0E54884420BD0E448844208D0E448E5
:107A0000844205D0E348844202D0E348844200D156
:107A100004E040F24A61D248FBF77CFA042D00D022
:107A200005B904E040F24B61CD48FBF773FA268BB1
:107A30004FF6FB7006402E43268370BD70B504469A
:107A40000D460026C748844217D0B4F1804F14D0A9
:107A5000C548844211D0C54884420ED0C4488442EF
:107A60000BD0C448844208D0C348844205D0C548DE
:107A7000844202D0C648844200D104E040F26461EE
:107A8000B748FBF747FA042D00D005B904E040F2EF
:107A90006561B348FBF73EFA268B4FF6FF30064090
:107AA0004FF6FF7000EA05200643268370BD70B5CF
:107AB00004460D460026AB4884420ED0B4F1804FF8
:107AC0000BD0A948844208D0A848844205D0A848D1
:107AD000844202D0A748844200D104E040F27D6194
:107AE0009F48FBF717FA042D00D005B904E040F2D7
:107AF0007E619B48FBF70EFAA68B4FF6FB700640A3
:107B00002E43A68370BD70B504460D4600269548E9
:107B100084420ED0B4F1804F0BD09348844208D0F9
:107B20009248844205D09248844202D091488442CF
:107B300000D104E040F296618948FBF7EBF9042D8F
:107B400000D005B904E040F297618548FBF7E2F9FF
:107B5000A68B4FF6FF3006404FF6FF7000EA052077
:107B60000643A68370BD70B504460D4600267D48C9
:107B700084420ED0B4F1804F0BD07B48844208D0B1
:107B80007A48844205D07A48844202D079488442B7
:107B900000D104E040F2AF617148FBF7BBF9802DE2
:107BA00000D005B904E04FF4D6616D48FBF7B2F997
:107BB000268B4FF67F7006402E43268370BD70B52E
:107BC00004460D460026674884420ED0B4F1804F2B
:107BD0000BD06548844208D06448844205D064488C
:107BE000844202D06348844200D104E040F2C9617B
:107BF0005B48FBF78FF9802D00D005B904E040F217
:107C0000CA615748FBF786F9268BC6F30E064FF676
:107C1000FF7000EA05200643268370BD70B5044658
:107C20000D4600264F4884420ED0B4F1804F0BD051
:107C30004D48844208D04D48844205D04C48844287
:107C400002D04C48844200D104E040F2E161444853
:107C5000FBF760F9802D00D005B904E040F2E26145
:107C60003F48FBF757F9A68B4FF67F7006402E432F
:107C7000A68370BD70B504460D460026394884427F
:107C80000ED0B4F1804F0BD03748844208D037482B
:107C9000844205D03648844202D03648844200D11E
:107CA00004E040F2F9612E48FBF734F9802D00D052
:107CB00005B904E040F2FA612948FBF72BF9A68BDD
:107CC000C6F30E064FF6FF7000EA05200643A683B2
:107CD00070BD70B504460D4600262248844229D066
:107CE000B4F1804F26D02048844223D01F488442DC
:107CF00020D01F4884421DD01E4884421AD01E48FE
:107D0000844217D01D48844214D01D48844211D0AB
:107D10001C4884420ED01C4884420BD01B4884422D
:107D200008D01B48844205D01A48844202D01A4821
:107D3000844200D104E040F211710948FBF7EAF8EF
:107D40000DB1022D00D104E040F212710448FBF79E
:107D5000E1F8268C4FF6FD7006402E43268470BD58
:107D60001C5B0008002C014000040040000800409B
:107D7000000C004000340140004C01400050014024
:107D80000054014000180040001C0040002000404A
:107D900000400140004401400048014070B50446E5
:107DA0000D460026FB4884420BD0FB48844208D095
:107DB000FA48844205D0FA48844202D0F948844205
:107DC00000D104E04FF4E561F748FBF7A3F80DB1EB
:107DD000082D00D104E040F22971F348FBF79AF82E
:107DE000268C4FF6F77006402E43268470BD70B582
:107DF00004460D460026E748844217D0B4F1804F70
:107E000014D0EA48844211D0E94884420ED0E948AF
:107E100084420BD0E048844208D0E748844205D031
:107E2000E648844202D0DD48844200D104E04FF4A9
:107E3000E861DD48FBF76EF80DB1022D00D104E0DA
:107E400040F24171D848FBF765F8268C4FF6DF7099
:107E500006404FF6FF7000EA05100643268470BD09
:107E600070B504460D460026CA48844202D0CA486E
:107E7000844200D104E040F25771CB48FBF74AF846
:107E80000DB1082D00D104E04FF4EB61C648FBF7BB
:107E900041F8268C4FF67F7006404FF6FF7000EADF
:107EA00005100643268470BD70B504460D460026B5
:107EB000B84884420ED0B4F1804F0BD0BB48844206
:107EC00008D0BB48844205D0BA48844202D0B248A8
:107ED000844200D104E040F26F71B348FBF71AF816
:107EE0000DB1022D00D104E04FF4EE61AE48FBF776
:107EF00011F8268C4FF6FF5006404FF6FF7000EA4F
:107F000005200643268470BD70B504460D46002644
:107F1000A048844202D0A048844200D104E040F24C
:107F20008771A148FAF7F6FF0DB1082D00D104E0E2
:107F30004FF4F1619C48FAF7EDFF268C4FF2FF7089
:107F400006404FF6FF7000EA05200643268470BD08
:107F500070B504460D4600268E4884420ED0B4F11A
:107F6000804F0BD09148844208D09148844205D07C
:107F70009048844202D08848844200D104E040F214
:107F80009F718948FAF7C6FF0DB1022D00D104E0B8
:107F90004FF4F4618448FAF7BDFF268C4DF6FF706C
:107FA00006404FF6FF7000EA05300643268470BD98
:107FB0002DE9F04104460D461646002775488442D7
:107FC00029D0B4F1804F26D07848844223D0784815
:107FD000844220D0774884421DD06F4884421AD012
:107FE0007548844217D07648844214D0754884423C
:107FF00011D0724884420ED0734884420BD073482B
:10800000844208D06548844205D06548844202D045
:108010006448844200D104E040F2BB716248FAF740
:1080200079FF2DB1042D03D0082D01D00C2D00D1E6
:1080300004E040F2BC715C48FAF76CFF012E00D0FE
:1080400006B904E040F2BD715748FAF763FF01201A
:10805000A84087B2208CB8432084208C06FA05F112
:1080600089B208432084BDE8F0812DE9F04104463F
:108070000D4616460027474884420BD046488442A6
:1080800008D04648844205D04548844202D045483D
:10809000844200D104E040F2D9714348FAF73AFF34
:1080A0001DB1042D01D0082D00D104E040F2DA7199
:1080B0003D48FAF72FFF042E00D006B904E040F245
:1080C000DB713948FAF726FF0420A84087B2208CDC
:1080D000B8432084208C06FA05F189B20843208435
:1080E000BDE8F0812DE9F04104460F461546002613
:1080F000B0462848844229D0B4F1804F26D02B487E
:10810000844223D02A48844220D02A4884421DD069
:10811000214884421AD02848844217D028488442F3
:1081200014D02848844211D0244884420ED02648D6
:1081300084420BD02548844208D01848844205D098
:108140001748844202D01748844200D104E040F628
:1081500003011548FAF7DEFE2FB1042F03D0082FD4
:1081600001D00C2F00D104E040F604010E48FAF7CC
:10817000D1FE6DB1102D0BD0202D09D0302D07D0A0
:10818000602D05D0702D03D0502D01D0402D1FD172
:1081900023E00000002C0140003401400040014079
:1081A00000440140004801401C5B000800040040FE
:1081B00000080040000C0040004C01400018004046
:1081C0000050014000540140001C004000200040CD
:1081D00040F60501FA48FAF79DFE264618360120BA
:1081E000B8401FFA80F8208C20EA080020840FB1E4
:1081F000082F09D106EB6706306820F07000306068
:108200003068284330600EE0381FC0F34E0006444B
:10821000306820F4E040306030684FF6FF7101EACA
:10822000052108433060BDE8F08170B504460D4675
:10823000E44884422FD0B4F1804F2CD0E2488442ED
:1082400029D0E248844226D0E148844223D0E14844
:10825000844220D0E04884421DD0E04884421AD0B5
:10826000DF48844217D0DF48844214D0DE4884427D
:1082700011D0DE4884420ED0DD4884420BD0DD4868
:10828000844208D0DC48844205D0DC48844202D0D5
:10829000DB48844200D104E040F62F01C848FAF7D9
:1082A00039FE0DB1012D00D104E04FF40361C44843
:1082B000FAF730FE25B1208840F00200208004E06B
:1082C00020884FF6FD710840208070BD70B50446CF
:1082D0000D46BC4884422FD0B4F1804F2CD0BA4810
:1082E000844229D0B948844226D0B948844223D058
:1082F000B848844220D0B84884421DD0B748844250
:108300001AD0B748844217D0B648844214D0B64831
:10831000844211D0B54884420ED0B54884420BD077
:10832000B448844208D0B448844205D0B34884425B
:1083300002D0B348844200D104E040F64B01A0488B
:10834000FAF7E8FD0DB1012D00D104E040F64C0133
:108350009B48FAF7DFFD25B1208840F0040020801B
:1083600004E020884FF6FB710840208070BD70B596
:1083700004460D469348844217D0B4F1804F14D080
:108380009148844211D0914884420ED09048844252
:108390000BD09248844208D09148844205D093483B
:1083A000844202D09448844200D104E040F6630144
:1083B0008348FAF7AFFD0DB1012D00D104E040F67E
:1083C00064017F48FAF7A6FD25B1A08840F080003F
:1083D000A08004E0A0884FF67F710840A08070BDA7
:1083E00070B504460D46774884422FD0B4F1804FD3
:1083F0002CD07548844229D07448844226D07448D1
:10840000844223D07348844220D0734884421DD0D4
:10841000724884421AD07248844217D0714884420C
:1084200014D07148844211D0704884420ED07048F4
:1084300084420BD06F48844208D06F48844205D0F4
:108440006E48844202D06E48844200D104E040F677
:108450007D015B48FAF75EFD082D00D005B904E008
:1084600040F67E015648FAF755FD20884FF6F77121
:108470000840208020882843208070BD70B50446C5
:108480000D46504884421DD0B4F1804F1AD04E485A
:10849000844217D04D48844214D04D48844211D0B4
:1084A0004C4884420ED04C4884420BD04B48844206
:1084B00008D04B48844205D04C48844202D04E48F4
:1084C000844200D104E040F69D013D48FAF722FDC8
:1084D0006DB1102D0BD0202D09D0302D07D0402D9F
:1084E00005D0502D03D0602D01D0702D00D104E0B7
:1084F00040F69E013248FAF70DFDA0884FF68F71C5
:108500000840A080A0882843A08070BD70B50446B4
:108510000D462C48844217D0B4F1804F14D02A481D
:10852000844211D0294884420ED0294884420BD07D
:108530002A48844208D02A48844205D02B488442E5
:1085400002D02D48844200D104E040F6B4011C481A
:10855000FAF7E0FC042D05D0052D03D0062D01D03F
:10856000072D00D104E040F6B5011548FAF7D2FC1A
:1085700020894FF6F8710840208120892843208106
:1085800070BD70B504460D460E48844217D0B4F154
:10859000804F14D00C48844211D00C4884420ED035
:1085A0000B4884420BD00D48844208D00C488442CA
:1085B00005D00E48844202D00F48844222D126E0E2
:1085C0001C5B0008002C0140000400400008004033
:1085D000000C004000100040001400400034014036
:1085E000004C014000500140005401400018004080
:1085F000001C0040002000400040014000440140B9
:108600000048014040F6C901F648FAF783FC802D86
:1086100000D005B904E040F6CA01F248FAF77AFC46
:1086200020894FF67F7108402081208928432081CE
:1086300070BD70B504460D46EB4884422FD0B4F1AE
:10864000804F2CD0E948844229D0E948844226D082
:10865000E848844223D0E848844220D0E748844256
:108660001DD0E74884421AD0E648844217D0E64835
:10867000844214D0E548844211D0E54884420ED0AB
:10868000E44884420BD0E448844208D0E348844262
:1086900005D0E348844202D0E248844200D104E09D
:1086A00040F6DB01CF48FAF735FCA58470BD70B504
:1086B00004460D46CC4884422FD0B4F1804F2CD0D4
:1086C000CA48844229D0CA48844226D0C948844234
:1086D00023D0C948844220D0C84884421DD0C8480D
:1086E00084421AD0C748844217D0C748844214D065
:1086F000C648844211D0C64884420ED0C548844240
:108700000BD0C548844208D0C448844205D0C44830
:10871000844202D0C348844200D104E040F6E9011B
:10872000B048FAF7F7FBA58570BD70B504460D4655
:10873000AD48844229D0B4F1804F26D0AB48844262
:1087400023D0AB48844220D0AA4884421DD0AC48F4
:1087500084421AD0AB48844217D0AB48844214D02C
:10876000AA48844211D0AA4884420ED0A948844223
:108770000BD0A948844208D0A848844205D0A84814
:10878000844202D0A748844200D104E040F6F701B9
:108790009448FAF7BFFBA58670BD70B504460D4638
:1087A0009148844217D0B4F1804F14D08F4884424E
:1087B00011D08F4884420ED08E4884420BD090480E
:1087C000844208D08F48844205D09148844202D028
:1087D0009248844200D104E040F605118148FAF73E
:1087E00099FB258770BD70B504460D467E488442CE
:1087F0000ED0B4F1804F0BD07C48844208D07C4826
:10880000844205D07B48844202D07D48844200D116
:1088100004E040F613117348FAF77CFBA58770BD9E
:1088200070B504460D46704884420ED0B4F1804FB6
:108830000BD06E48844208D06D48844205D06D4804
:10884000844202D06E48844200D104E040F62111F7
:108850006448FAF75FFBA4F8405070BD70B5044659
:108860000D466148844229D0B4F1804F26D05F483C
:10887000844223D05E48844220D05E4884421DD08A
:108880005F4884421AD05F48844217D05E488442D1
:1088900014D05E48844211D05D4884420ED05D48B9
:1088A00084420BD05C48844208D05C48844205D0A6
:1088B0005B48844202D05B48844200D104E040F629
:1088C0008C114848FAF726FB2DB1B5F5807F02D010
:1088D000B5F5007F00D104E040F68D114148FAF76C
:1088E00019FB20884FF6FF4108402080208828434C
:1088F000208070BD10B504463B48844229D0B4F1B5
:10890000804F26D03948844223D03948844220D031
:10891000384884421DD03A4884421AD039488442AB
:1089200017D03948844214D03848844211D038488E
:1089300084420ED0374884420BD03748844208D056
:108940003648844205D03648844202D035488442B5
:1089500000D104E040F69C112248FAF7DBFAA08E21
:1089600010BD10B504462048844217D0B4F1804FA2
:1089700014D01E48844211D01D4884420ED01D4898
:1089800084420BD01E48844208D01E48844205D041
:108990001F48844202D02148844200D104E040F6BE
:1089A000A9111048FAF7B6FA208F10BD10B5044689
:1089B0000D4884420ED0B4F1804F0BD00B48844256
:1089C00008D00B48844205D00A48844202D00C48A3
:1089D000844200D104E040F6B6110248FAF79AFA50
:1089E000A08F10BD1C5B0008002C0140000400405B
:1089F00000080040000C004000100040001400403F
:108A000000340140004C014000500140005401403E
:108A100000180040001C00400020004000400140C1
:108A2000004401400048014010B50446F948844222
:108A30000ED0B4F1804F0BD0F748844208D0F748ED
:108A4000844205D0F648844202D0F648844200D1E0
:108A500004E040F6C311F448FAF75CFAB4F84000B9
:108A600010BD10B50446EB4884422FD0B4F1804FBE
:108A70002CD0E948844229D0E848844226D0E848EE
:108A8000844223D0E948844220D0E94884421DD062
:108A9000E44884421AD0E748844217D0E64884422A
:108AA00014D0E648844211D0E54884420ED0E5480F
:108AB00084420BD0E448844208D0E448844205D084
:108AC000E348844202D0E348844200D104E04FF4FA
:108AD0001D61D548FAF71EFAA08C10BD10B50446EA
:108AE000CC4884422FD0B4F1804F2CD0CA48844265
:108AF00029D0CA48844226D0C948844223D0CB48D2
:108B0000844220D0CA4884421DD0C64884421AD02C
:108B1000C848844217D0C848844214D0C748844209
:108B200011D0C74884420ED0C64884420BD0C648F4
:108B3000844208D0C548844205D0C548844202D04A
:108B4000C448844200D104E040F6DD11B648FAF78B
:108B5000E1F9208D10BD70B504460D460026AD48E4
:108B600084422FD0B4F1804F2CD0AB48844229D01E
:108B7000AA48844226D0AA48844223D0AB488442E3
:108B800020D0AB4884421DD0A64884421AD0A948C0
:108B9000844217D0A848844214D0A848844211D0F7
:108BA000A74884420ED0A74884420BD0A6488442EE
:108BB00008D0A648844205D0A548844202D0A548E2
:108BC000844200D104E04FF420619748FAF7A2F9FB
:108BD000012D19D0022D17D0042D15D0082D13D03A
:108BE000102D11D0202D0FD0402D0DD0802D0BD069
:108BF000B5F5007F08D0B5F5806F05D0B5F5006FED
:108C000002D0B5F5805F00D104E040F6012186482E
:108C1000FAF780F9208A284008B1012600E00026F2
:108C2000304670BD70B504460D467A4884422FD058
:108C3000B4F1804F2CD07848844229D077488442C0
:108C400026D07748844223D07848844220D0784880
:108C500084421DD0734884421AD07648844217D08B
:108C60007548844214D07548844211D074488442B7
:108C70000ED0744884420BD07348844208D07348A5
:108C8000844205D07248844202D07248844200D1A6
:108C900004E040F62B216448FAF73CF905F4614002
:108CA00008B905B104E040F62C215F48FAF732F923
:108CB000E843208270BD2DE9F04104460D460026B0
:108CC0000027B046534884422FD0B4F1804F2CD0B7
:108CD0005148844229D05148844226D05048844289
:108CE00023D05248844220D0514884421DD04D4860
:108CF00084421AD04F48844217D04F48844214D03F
:108D00004E48844211D04E4884420ED04D48844291
:108D10000BD04D48844208D04C48844205D04C4882
:108D2000844202D04B48844200D104E040F64D21F9
:108D30003D48FAF7EFF8012D0DD0022D0BD0042D90
:108D400009D0082D07D0102D05D0202D03D0402D9F
:108D500001D0802D00D104E040F64E213248FAF7D0
:108D6000D9F8208A00EA0507A08900EA050827B19A
:108D7000B8F1000F01D0012600E000263046BDE822
:108D8000F08170B504460D46224884422FD0B4F1DC
:108D9000804F2CD02048844229D02048844226D0BD
:108DA0001F48844223D02148844220D02048844256
:108DB0001DD01C4884421AD01E48844217D01E4839
:108DC000844214D01D48844211D01D4884420ED0E4
:108DD0001C4884420BD01C48844208D01B48844263
:108DE00005D01B48844202D01A48844200D104E0D6
:108DF00040F677210C48FAF78DF805F47F4008B962
:108E000005B104E040F678210748FAF783F8E84313
:108E1000208270BD002C014000040040000800408A
:108E2000000C0040003401401C5B000800100040B2
:108E300000140040004C014000500140005401402B
:108E400000180040001C004000200040004001408D
:108E500000440140004801400CB500200190009002
:108E60006C48006840F480306A49086000BF694877
:108E7000006800F4003000900198401C01900098B8
:108E800018B90198B0F5A06FF1D16248006800F4FC
:108E9000003010B10120009001E000200090009807
:108EA000012843D15C48006840F010005A4908602E
:108EB0000846006820F0030008600846006840F09B
:108EC00002000860534840685249486008464068BC
:108ED00048600846406840F4806048600846406842
:108EE00020F47C1048600846406840F4E810486070
:108EF0000846006840F08070086000BF4548006880
:108F000000F000700028F9D04248406820F00300CB
:108F1000404948600846406840F00200486000BF91
:108F20003C48406800F00C000828F9D10CBD10B591
:108F3000FFF792FF10BD10B53648006840F0010001
:108F4000344908600846406834490840314948605F
:108F500008460068324908402E4908600846006803
:108F600020F4802008600846406820F4FE00486035
:108F70004FF41F008860FFF7DAFF4FF000602949C7
:108F8000086010BD10B5002100200022214B5B6855
:108F900003F00C0121B1042906D0082928D107E0EB
:108FA000214B224C236027E01F4B204C236023E001
:108FB000184B5B6803F47010164B5B6803F4803247
:108FC000022303EB904022B9194B4343174C236013
:108FD0000DE0104B5B6803F4003323B1144B4343A3
:108FE000124C236003E0104B4343104C236003E01A
:108FF0000D4B0E4C236000BF00BF064B5B68C3F3F4
:1090000003130C4CE15C094B1B68CB40074C2360FD
:1090100010BD000000100240002002400000FFF8D8
:10902000FFFFF6FE08ED00E000127A00901A002023
:1090300000093D00941A002070477047704775463C
:1090400000F028F8AE4605006946534620F00700B8
:10905000854618B020B5F9F779FBBDE820404FF000
:1090600000064FF000074FF000084FF0000B21F012
:109070000701AC46ACE8C009ACE8C009ACE8C009DF
:10908000ACE8C0098D4670470446AFF30080204627
:10909000F7F797F8004870479C1D002001491820F9
:1090A000ABBEFEE7260002007047000090EA010F09
:1090B00048BF81F0004100F1E282421A3CBF801AB1
:1090C00089184FEAD0524FF07F4C1CEA410FA2EBB7
:1090D000D15318BF9CEA026F00F03B804FF0004C68
:1090E0004CEA00204CEA012121FA03FC10EB0C0CA5
:1090F0001ED202F1FF325FEA1C2040EBC25038BFA3
:1091000070471CF07F0F4FEA400C18BFBCF17F4F37
:1091100038BF7047C3F12003994008BF20F0010019
:10912000BCF17F4F38BF7047A0F1C04000F069BA72
:109130004FEA3C00000A40EBC25028BF1CF0FF0F72
:109140004FEA400CE6D018BFBCF17F4F38BF7047E4
:10915000EAE79CEA026F05D010EA5C0F08BF00F056
:109160000040704710B500F006FA00BF64FBBE3E39
:10917000401058BFC0F14040491058BFC1F14041B4
:109180008142EFF3008070474FF47F0C1CEAD0124D
:109190001EBF1CEAD11392EA0C0F93EA0C0F00F0E9
:1091A000858090EA010F48BF42F4807240F4000CC1
:1091B00041F400002CF07F4120F07F4000B5814257
:1091C000A2EB03020FF2081CACEB504EC0F1000002
:1091D0009EF800E04FEA4E0E00FB0EFC38BF49003F
:1091E0004FEA2C1C02F5FA020CFB0EF34FEACE1EDE
:1091F0004FEA112C4FEAC1210EEB635E42EB224293
:109200000EFB0CFC4FEA1C5300FB03114FEA112C20
:109210004FEA01310EFB0CFC4FEADC4C00FB0C1159
:10922000C14228BF09184CEB03335DF804EB10EB87
:10923000410143EBC250B2F57C0F38BF704729D5CE
:1092400012F0F00F1CBF00F1C04000F0004070476A
:10925000008182838485868788898B8C8D8E8F910F
:109260009293959697999A9C9D9FA0A2A3A5A7A833
:10927000AAACAEB0B2B3B5B7B9BCBEC0C2C5C7C95F
:10928000CCCED1D4D7D9DCDFE2E6E9ECF0F3F7FAC3
:10929000FE0000004FEA400C0CF1807CBCF17E4FD8
:1092A00028BF7047B0F1C04000F0ABB990EA010FA1
:1092B0000CEAD11348BF42F48072624538BF63455F
:1092C00007D213F47F0F16D080EA010000F00040AF
:1092D000704710B500F04FF9097EFC3E00F005B86C
:1092E00080EA010000F00040704780EA010000F0D1
:1092F000004000F086B912F47F0F04BF02487047A7
:1093000080EA010000F07DB90000C07F50EA010C46
:1093100000F113801CF5000F58BFBCF5000F01D4FD
:109320008842704707D710F5000F58BF11F5000F9E
:1093300015D488427047894270471CF5000F04D548
:10934000BCF5000FF7D5814270474FF0807C1CEBD5
:10935000400F38BF1CEB410F01D28142704710B55E
:1093600000F009F9922449004FF000504FF080516D
:10937000FFF7FEBEC10DD1F19E0206DB4FEA0023CE
:1093800043F0004323FA02F07047004207D54FEA4A
:109390004001B1F1FE4F02D24FF00000704710B50E
:1093A00000F0E9F849922480002070476FEA20001D
:1093B0007047000010F0004148BF4042B0FA80F30F
:1093C00010FA03F2C3F19D030BD051EAC35101EB34
:1093D0001220530638BF704700F1010008BF20F08B
:1093E00001007047B0FA80F310FA03F2C3F19D0355
:1093F0000AD0D90501EB1220530638BF704700F19F
:10940000010008BF20F001007047000050EA010C85
:1094100000F113801CF5000F58BFBCF5000F01D4FC
:109420008842704707D710F5000F58BF11F5000F9D
:1094300015D488427047894270471CF5000F04D547
:10944000BCF5000FF7D5814270474FF0807C1CEBD4
:10945000400F38BF1CEB410F01D28142704710B55D
:1094600000F089F8922449004FF000504FF08051ED
:10947000FFF77EBE4FF47F0C1CEAD0121EBF1CEA21
:10948000D11392EA0C0F93EA0C0F00F0478090EA98
:10949000010F48BF42F480724FF0004C4CEA0020AC
:1094A0004CEA012102EB0302A0FB0113A2F500022A
:1094B000002918BF43F001035B0028BF4FEA3303C4
:1094C00042EB22425FEA132C4CEBC2502EBFBCEBA6
:1094D000436FB2F57C0F70474FEA036CBCF1004F4D
:1094E00008BF20F00100B2F57C0F38BF70470BD5E4
:1094F00082F0FF0212F5803FC8BF704700F1C04004
:10950000D8BF00F00040704700F5000C5FEA4C0C3B
:1095100048BF7047B0F1C04000F073B890EA010F47
:109520000CEAD11348BF42F48072624538BF6345EC
:1095300004D280EA010000F00040704710B500F04E
:109540001AF800BF8900013E00F007B800F009B822
:109550005FEA410C5FEA1C6C08D080EA010000F071
:1095600050B85FEA400C5FEA1C6CF6D14FF0004047
:10957000A0F5800070470EF1020E2EF0030E5EF88B
:10958000044B244204D44FEA4102B2F17F4F11D878
:109590004FEA4003B3F17F4F0CD80ED14FEAD07C95
:1095A000B2F17F4F0CEB4C0C0CF1020C08BF4CEBF2
:1095B000D17C04E04FF0080C01E04FEAD17C0CEBC9
:1095C0004C0324FA03F404F00704B4F1040C06D2AB
:1095D0000EEB840CBDE810404CF0010C6047DFE856
:1095E0000CF0070802024FF00040A0F5800010BD0B
:1095F0000846420018BFD2F1807288BF00F00040D8
:1096000010BDFF2141EAD050C005704751EA000C5F
:1096100000F113801CF5000F58BFBCF5000F01D4FA
:109620008142704707D711F5000F58BF10F5000FA2
:1096300015D481427047894270471CF5000F04D54C
:10964000BCF5000FF7D5884270474FF0807C1CEBCB
:10965000410F38BF1CEB400F01D28842704780EAAF
:10966000010081EA000180EA0100FFF7F8BE000076
:1096700090EA010F48BF81F000413FF51EAD421A4C
:1096800004D882F00042A0EB020011444FEAD0520D
:109690004FF07F4C1CEA410FA2EBD15318BF9CEA5C
:1096A000026F4AD04FF0004C4CEA00204CEA0121F6
:1096B00021FA03FCB0EB0C0C0FD412F0FE0F36D0E5
:1096C0005FEA4C001DD5001240EBC25038BF704716
:1096D0001CF03F0F18BF70470BE0A2F101025FEAD8
:1096E0001C2040EBC25038BF70471CF07F0F18BFE2
:1096F0007047C3F12003994014BF401E20F00100C1
:10970000704780084FEA122308BF7047B0FA80FC08
:10971000A2EB0C02CCF1280C60FA0CF093EA122FA9
:1097200004BF00EBC25070474FEAC3707047130A82
:109730005FEADC1008BF7047F6E79CEA026F04D0CE
:1097400010EA5C0F08BF0020704710B5FFF713FF49
:1097500040DFF63E81F0004070470000000000004E
:1097600000000000000000000000000000080808E1
:109770000808080800001818000000486C241200AF
:10978000000000000000000000000000002424246D
:109790007F1212127F12121200000000081C2A2AE7
:1097A0000A0C1828282A2A1C08080000002225155F
:1097B00015152A585454542200000000000C1212AF
:1097C000120A76252911916E000000060604030096
:1097D0000000000000000000000000402010100801
:1097E00008080808081010204000000204080810AB
:1097F00010101010100808040200000000000808F3
:109800006B1C1C6B0808000000000000000008082A
:1098100008087F0808080800000000000000000099
:109820000000000000000606040300000000000025
:109830000000FE000000000000000000000000002A
:1098400000000000000006060000000080404020EC
:10985000201010080804040202000000001824422E
:1098600042424242424224180000000000080E0812
:10987000080808080808083E00000000003C4242B2
:10988000422020100804427E00000000003C4242BA
:10989000201820404042221C0000000000203028F8
:1098A000242422227E20207800000000007E020274
:1098B000021A26404042221C000000000038240208
:1098C000021A26424242241800000000007E222292
:1098D000101008080808080800000000003C424278
:1098E000422418244242423C000000000018244256
:1098F000424264584040241C000000000000000068
:1099000018180000000018180000000000000000F7
:1099100000080000000000080804000000402010BB
:1099200008040204081020400000000000000000AD
:109930007F0000007F00000000000000000204081B
:10994000102040201008040200000000003C4242A9
:10995000464020101000181800000000001C225A79
:10996000555555552D42221C0000000000080818CE
:109970001414243C224242E700000000001F22226F
:10998000221E22424242221F00000000007C42426E
:10999000010101010142221C00000000001F2242BF
:1099A000424242424242221F00000000003F421257
:1099B000121E12120242423F00000000003F4212FB
:1099C000121E12120202020700000000003C2222B6
:1099D000010101712122221C0000000000E7424227
:1099E00042427E42424242E700000000003E080838
:1099F000080808080808083E00000000007C101055
:109A00001010101010101010110F0000007722120B
:109A10000A0E0A121222227700000000000702023A
:109A2000020202020202427F000000000077363686
:109A300036362A2A2A2A2A6B0000000000E346460E
:109A40004A4A52525262624700000000001C224102
:109A5000414141414141221C00000000003F42427F
:109A600042423E020202020700000000001C2241A6
:109A7000414141414D53321C60000000003F4242D1
:109A8000423E1212222242C700000000007C4242E5
:109A9000020418204042423E00000000007F4908B6
:109AA000080808080808081C0000000000E74242F7
:109AB000424242424242423C0000000000E7424231
:109AC000222424141418080800000000006B4949DF
:109AD00049495555362222220000000000E7422461
:109AE00024181818242442E70000000000772222DE
:109AF000141408080808081C00000000007E21203B
:109B0000101008040442423F0000007808080808CA
:109B10000808080808080808780000000202040481
:109B200008080810102020204040001E10101010BF
:109B300010101010101010101E000038440000000B
:109B40000000000000000000000000000000000015
:109B5000000000000000000000FF000608000000F8
:109B600000000000000000000000000000000000F5
:109B7000003C4278444242FC000000000003020224
:109B8000021A26424242261A00000000000000008D
:109B900000384402020244380000000000604040E7
:109BA00040784442424264D80000000000000000B7
:109BB000003C427E0202423C0000000000F08808A7
:109BC000087E08080808083E0000000000000000A9
:109BD000007C22221C023C42423C000000030202A4
:109BE000023A4642424242E700000000000C0C00EC
:109BF000000E08080808083E000000000030300091
:109C00000038202020202020221E00000003020215
:109C10000272120A1612227700000000000E0808D5
:109C2000080808080808083E0000000000000000BE
:109C3000007F9292929292B7000000000000000014
:109C4000003B4642424242E70000000000000000A4
:109C5000003C42424242423C000000000000000042
:109C6000001B26424242221E0207000000000000A4
:109C7000007844424242447840E000000000000086
:109C800000774C040404041F0000000000000000E2
:109C9000007C42023C40423E000000000000000800
:109CA000083E080808080830000000000000000016
:109CB00000634242424262DC0000000000000000FB
:109CC00000E74224241408080000000000000000FF
:109CD00000EB494955552222000000000000000019
:109CE000007624181818246E000000000000000000
:109CF00000E74224241418080807000000000000B0
:109D0000007E22100808447E000000C02020202091
:109D10002010202020202020C00010101010101033
:109D2000101010101010101010100006080808086D
:109D3000081008080808080806000C32C2000000D5
:109D4000000000000000000000003A04401012145F
:109D500032801716180419021A7B03060C0C150220
:109D60003E007000710172117309A20211007A2085
:109D70007B1C7C287D3C7E557F6880768180828834
:109D8000838F849685A386AF87C488D789E813E03C
:109D9000000010000D001420A505AB0724752563F5
:109DA00026A59F78A068A103A6DFA7DFA8F0A99049
:109DB000AA9413E50E610F4B16021E372102229161
:109DC0002907330B350B371D3871392A3C784D4044
:109DD0004E20695D6B4074198D4F8E008F0090008E
:109DE0009100920096009A80B084B10CB20EB382BA
:109DF000B80A431444F0453446584728483A59882D
:109E00005A885B445C675D495E0E640465206605A4
:109E1000940495086C0A6D554F8050805100522271
:109E2000535E548009036E116F9E55205650574063
:109E30006A400140024013E71502589E41083F0066
:109E4000750576E14C0077013DC24B09C960413888
:109E500034113B02A48996009730982099309A8457
:109E60009B299C039D4C9E3F78047901C8F0790F93
:109E7000C8007910C87E790AC880790BC801790CAE
:109E8000C80F790DC8207909C8807902C8C0790344
:109E9000C8407905C830792609000000000000009C
:109EA00000000000000000000000000000000000B2
:109EB000000000000000000000000000DC9E000820
:109EC00000000020A41A00002801000844AA00088D
:109ED000A41A00205C0900008C010008025900014E
:109EE000D024010203040506070809414243444502
:109EF000464748494A4B4C4D4E4F5051525354558A
:109F0000565758595A321012FC0007FFC01FFFE085
:109F10003FFFF87FFFF8FF07FC03400DFE01FEFC4A
:109F200000FEF800FEF0007E0352000322FE3132F4
:109F30000103300C03F8000FF001FFE001FFC00344
:109F40001007F0001FF800071B32FE2732FF0372D4
:109F50007F0332E00322F003215A2004FC01FE6C4F
:109F6000117221781009F03FFFE01FFFC0035F105E
:109F7000174020A01110120885F6480047C4145459
:109F8000145427D4E4542406100E24442554048881
:109F9000200017FC0004410220054FE4492402116F
:109FA00008101104412441F45E144804400C0200DE
:109FB0000100FF47300600001FF0100130261FF09F
:109FC0000100111011082104450402000208421C7E
:109FD000226022400FC08240427E52C813482E4861
:109FE000E248220210372A8805080040784048409D
:109FF00057FC50406248515048404FFE48A068A06E
:10A000005110411042084404480202003FF8292838
:10A0100025482FE82388254829283FF8EB23FE1000
:10A02000FC1406080050002025200503FFC007CFC0
:10A030002015F81FFFFC3FC3FC3F81FC3F007C7CE8
:10A04000003E78001EF828015303300978001F7E77
:10A05000007E3F006F117513FFFC811187118D1574
:10A060008B0293FF011700183C14068003FFE00FDA
:10A070002951031008FE7FE3FEFE007F0398057E52
:10A08000007F1C4061033985297F31031A07852928
:10A0900088100D001FE0001FC0003F80007F80542B
:10A0A00011F319871103412311261A1F9F1007F07E
:10A0B000003FE0003F2632C026061400171D0603AD
:10A0C000D0047FFFFC0329EE19F1400507F0000FD3
:10A0D000694103116F918F31CC100B03FFF003FF27
:10A0E000F801FFF800031D2A034E000F034D420341
:10A0F000A23E0362F803140FFC003E7C00FE7E00CB
:10A10000FE7F01FC7F83BC3AF83D3406F00FFFE090
:10A1100007BF29CF300503E0000703920F0311F6B4
:10A12000923F031D620332FF0322FB032301F3036B
:10A13000320303200607E3E007C303320F03121FB5
:10A1400003200583E01F0303323F03327E03A00A8E
:10A150007C03E0FC03E0FFFFFE0320047FFFE47EBE
:10A160000110031DD6032529C2FE037EFC2D040128
:10A17000140315D81C09FF807FFFC07FFFE0F9039F
:10A18000356E040911F83F83FC1E01FC0C29721E78
:10A19000032608261529114141034404FE7FC72CDC
:10A1A0001529210315801601FB163C2C54080000CC
:10A1B00007800007C0AD8919593C6601D09703F0AC
:10A1C00052112F100480001F03500AFF003FFF8030
:10A1D0003FFFC03FA22C0FF07FE7F87F03F87F011D
:10A1E000F87E00FC7CCC0302127E0311F913FC7F85
:10A1F00003600683F83FFFF09632E09614040000F7
:10A20000782CF3FEFF033D550592FC03193431977A
:10A21000210365F2210332C0A0310321A3F0040021
:10A22000003F03663E78B27C504103021501032DC6
:10A2300003061D2D031FFF800606197021B4200A96
:10A24000E7F01F83F03F00F83E03A005783C007C58
:10A250000311121118111E571FC7773A07A6113C98
:10A2600015891DF5041D48061D8304150819D035F0
:10A2700029F23E0365BF1DAD047AE7EB452C1D4B6B
:10A280000631C0123F933EC01A041EF81D045D49FA
:10A290000567C0FCFB623F03321F03710F200F3FB5
:10A2A0007F00FE3F80FE3FC3FE1FFFFE0F031C0624
:10A2B000FC07FFFC01C00311033739FC5C3DC603FA
:10A2C000AD4B03491F4DCC03367F0E8EFC38041D69
:10A2D0005B043C0901E00001C00000C02F07663E9E
:10A2E00068BD9A04528003B2FF03800401F7C003E3
:10A2F0006EF390034006E3E003E1F0038307C1033C
:10A3000010060F81F00F800352F80343FFFC031D7A
:10A31000450611CC20081FC17E1F007E3E03723E01
:10A320000311FF25BE1D6A042DE2054EF04D071CEA
:10A330000BFD47FCF801FCF8007EF8AA062103DDBE
:10A3400072064115227E245E0180074004FFFFE073
:10A350003F4009F807F8F801F8F8003F011642916C
:10A3600045514862F84811454E807E0715C81D10BA
:10A3700005491629132E833C034D3F039E78FB04A9
:10A380003103023C0003A21C4E400478003C691DCE
:10A390004C0521783D490519DC4D8703352C3405E2
:10A3A00080FFFFC02F11FF1004FCF803ED62FED206
:10A3B0000E573FA10785772EFCF70866FC7736C05D
:10A3C000BCD2FC03CEFE150401190335B9B103025A
:10A3D00027FC3CC148ED9E043DB004BDB107012DF2
:10A3E00096A2F8030134960110033DAD042D6009D7
:10A3F0003E0F26072D6009295810087C7E003C7C02
:10A40000001E031D66092E786F05011503B0063F77
:10A41000FE783FFF033D3C09011903227C03115ADA
:10A420001D6F034F7C7F60092EF75D094DFB042DE6
:10A4300072069BFF0040012C031EFC6B06C56502E3
:10A4400036FC4BD157D404580019830182031D9E5A
:10A45000051D9A0B016D034D8103156B1D69091DC7
:10A460003A082D1A043D220B1D1D047D75063D8AF8
:10A47000092E7CFB043E010405100501F0F80303DE
:10A480001004E0F80F0332C003100480F81F031E0D
:10A4900000050851032C0AFE00F8FF00F9FF00FB3D
:10A4A000530431031008EF80FFCFC0FF870322E081
:10A4B000031C0707E0FF03E0FE54092301E051817C
:10A4C000031D64054D670532FC7541036E3CC504F0
:10A4D0005DD30B0C043F00001A1C05014103D9A0F9
:10A4E000740480000E501DA90B2D7A06300501FF63
:10A4F000FF8103200883FFFFC3FFFFE7031004FB76
:10A50000FFDF031005F9FF1FF803627E0330053CEF
:10A510001FF818030D50FF0C5D5C0D62FC0332FE4A
:10A520000342FF0332800382C00333FBE00322F0C7
:10A530000323F9F80333F8FC03327C03323E033281
:10A540003F03121F0320059FF80FDF033207031D8F
:10A55000E00B71037E01EC0B1DF20B327F038DC00B
:10A56000031C04D000102E085E01E40C4D1E094DA2
:10A57000100E3EFC18094E1E62040D4F0A0E6DB6F9
:10A58000045E3E100E3D0D0E3E0F100E2DB0042E3B
:10A590007E0E096D08071D2304DC04FCFC0F340843
:10A5A0000D19F5070E163EC6060A3FFCA91DB90A8D
:10A5B0003D37087EC037085F7F8134088E7C1E03DC
:10A5C00001420330053E3EF83F035C111FBE781F79
:10A5D000BE7C0FFC7C07FC7E07FC7F877D0D352C45
:10A5E0003D380A1F7C40F7069D340857F8F82C6E5A
:10A5F000FCAE03EF1EF8D80F41127D500412FC335D
:10A600006D1E093EE029044D410B31032DEB09621B
:10A61000C0032C05E0F807E07404CF03E02C049E8F
:10A62000FC2C0451758F00FF68102DCB0426E7E940
:10A630004D730B1DE604BEFCCD082DC6037D110C29
:10A640003E7C230C2DF10A1D25032DF40B11452D05
:10A65000B20E21105DAF0E4DA90E4D550CAD490542
:10A660002D730C5EFCC10B5958452F3D60090D1030
:10A6700068100F1DFE000B0E0163030F58240076B7
:10A68000110D1CF3096D720666FE2C66FC2C2D84E0
:10A6900003712141033DDC0E427C03223E0372FC28
:10A6A0000370043F01F8032F1F819E0D41036E0FBD
:10A6B000CF0F3E0FDB0F700407C7C0036303EF0328
:10A6C000359B3D9B104E80040B71035D9A107DA05D
:10A6D00010191A1F7C0057101DE41013F0100350BE
:10A6E000060EF0180E7003121E03127803123803C0
:10A6F000221C0320043C1C3803723C0320043C7CD5
:10A70000380350047E381C03127803121E0312FE15
:10A71000032270031005FF700EEF032C04F00EE708
:10A72000640E310342E0036307C70341C943C3C05A
:10A7300003330383036F81C025114E7EDC0B467EFD
:10A74000171D850E2F81F8380D36C30B22C7031253
:10A75000074E42E7F92D0E1081ED4D90147DC61481
:10A760003112650E212A252623E7C03F31483D28B6
:10A77000112FF00F980D2DF407363F895E7E6B0A7E
:10A780002DD60E1D63031DCB0835C2327E1555B67E
:10A790003196459E52F09056EF80620193D5740138
:10A7A0004C030D1168135DBD156DBA159E01651042
:10A7B000BDFF104D5C101D0C0FCDB311D132410304
:10A7C000D132410365610D11EC132306000320050E
:10A7D0000700700F031007780F003C1D800310075F
:10A7E0001E38C00E38E0031F04301C1622FC032D57
:10A7F00071054805FE01DFDF061007F78000F3FE54
:10A800000C03100779FECC11FEEC036301C60311A3
:10A810000C2008FEEC09FEEC0DCE0340051DC6EC35
:10A8200019034004FEEC310322EE03400771C64CCD
:10A8300071C60C03100461DE3C0312E10622CC0356
:10A84000100430000003100738FFFE38FFFF03102C
:10A85000073CFFFF1800030320060018030038031D
:10A8600012C003221803B004C3FFC30392180332BB
:10A870003803323D037124433C43242007C219C3EB
:10A88000C018E30370063DE3CFFFF3033007C78032
:10A8900023C00003031DA912623E03121C035200D1
:10A8A000978103CE7F8F0DADC0176E0FFF12430E41
:10A8B00000030210700371242D1D1310093C0002C7
:10A8C00018000718C00310070F18E00E18F0031047
:10A8D000071E18783C183C03200778181C70381E97
:10A8E000034C07780C40F800409C073240031320CB
:10A8F0000203300760701F7071FF031005FE3C718A
:10A90000C00330051C71800C03400608718003FDF4
:10A910000312C00330050071FF60031007F071FFE0
:10A920007871DC0320063C759C087D032300FD0341
:10A93000200603F99C07F103200603E19C1A71032A
:10A9400020061C719C187303400538731C300322C9
:10A950007703627003300671F71C71EF032005C6A0
:10A960001C6000032DEC133103C2FF034004C67FBB
:10A97000FE034004CE0300031004CC731C03200725
:10A98000DC731CD873180310063318DC333803103B
:10A9900007CE3330C61300032004C77FFC0353FFE8
:10A9A000FF037387C0031004DF0FE0032006CE0E01
:10A9B000E0C80C032004C01C700320063838C070A7
:10A9C0003C032006F01CC7E01F031006800FC38065
:10A9D00002032D59195270032308F2035E1FD51587
:10A9E0002007F8199918199B034007189B181BFF9B
:10A9F0009803100418FB1803300619DB9819990303
:10AA0000731818304C040BE7D0A9197C043E363C6F
:10AA1000A41661F51DBC1942F00361706260033E2B
:10AA2000E0B8126DD71411037E07211A2D251A2DB7
:10AA3000241A2C0502040608031AAC04A24A044096
:04AA40001A211B00BC
:04000005080000ED02
:00000001FF
